{
  "_format": "hh-sol-artifact-1",
  "contractName": "MemberCard",
  "sourceName": "contracts/MemberCard.sol",
  "abi": [
    {
      "inputs": [
        {
          "internalType": "address",
          "name": "_dispatcher",
          "type": "address"
        }
      ],
      "stateMutability": "nonpayable",
      "type": "constructor"
    },
    {
      "anonymous": false,
      "inputs": [
        {
          "indexed": true,
          "internalType": "address",
          "name": "owner",
          "type": "address"
        },
        {
          "indexed": true,
          "internalType": "address",
          "name": "approved",
          "type": "address"
        },
        {
          "indexed": true,
          "internalType": "uint256",
          "name": "tokenId",
          "type": "uint256"
        }
      ],
      "name": "Approval",
      "type": "event"
    },
    {
      "anonymous": false,
      "inputs": [
        {
          "indexed": true,
          "internalType": "address",
          "name": "owner",
          "type": "address"
        },
        {
          "indexed": true,
          "internalType": "address",
          "name": "operator",
          "type": "address"
        },
        {
          "indexed": false,
          "internalType": "bool",
          "name": "approved",
          "type": "bool"
        }
      ],
      "name": "ApprovalForAll",
      "type": "event"
    },
    {
      "anonymous": false,
      "inputs": [
        {
          "indexed": true,
          "internalType": "bytes32",
          "name": "role",
          "type": "bytes32"
        },
        {
          "indexed": true,
          "internalType": "bytes32",
          "name": "previousAdminRole",
          "type": "bytes32"
        },
        {
          "indexed": true,
          "internalType": "bytes32",
          "name": "newAdminRole",
          "type": "bytes32"
        }
      ],
      "name": "RoleAdminChanged",
      "type": "event"
    },
    {
      "anonymous": false,
      "inputs": [
        {
          "indexed": true,
          "internalType": "bytes32",
          "name": "role",
          "type": "bytes32"
        },
        {
          "indexed": true,
          "internalType": "address",
          "name": "account",
          "type": "address"
        },
        {
          "indexed": true,
          "internalType": "address",
          "name": "sender",
          "type": "address"
        }
      ],
      "name": "RoleGranted",
      "type": "event"
    },
    {
      "anonymous": false,
      "inputs": [
        {
          "indexed": true,
          "internalType": "bytes32",
          "name": "role",
          "type": "bytes32"
        },
        {
          "indexed": true,
          "internalType": "address",
          "name": "account",
          "type": "address"
        },
        {
          "indexed": true,
          "internalType": "address",
          "name": "sender",
          "type": "address"
        }
      ],
      "name": "RoleRevoked",
      "type": "event"
    },
    {
      "anonymous": false,
      "inputs": [
        {
          "indexed": true,
          "internalType": "address",
          "name": "from",
          "type": "address"
        },
        {
          "indexed": true,
          "internalType": "address",
          "name": "to",
          "type": "address"
        },
        {
          "indexed": true,
          "internalType": "uint256",
          "name": "tokenId",
          "type": "uint256"
        }
      ],
      "name": "Transfer",
      "type": "event"
    },
    {
      "inputs": [],
      "name": "DEFAULT_ADMIN_ROLE",
      "outputs": [
        {
          "internalType": "bytes32",
          "name": "",
          "type": "bytes32"
        }
      ],
      "stateMutability": "view",
      "type": "function"
    },
    {
      "inputs": [],
      "name": "DISPATCHER_ADDRESS",
      "outputs": [
        {
          "internalType": "address",
          "name": "",
          "type": "address"
        }
      ],
      "stateMutability": "view",
      "type": "function"
    },
    {
      "inputs": [
        {
          "internalType": "address",
          "name": "to",
          "type": "address"
        },
        {
          "internalType": "uint256",
          "name": "tokenId",
          "type": "uint256"
        }
      ],
      "name": "approve",
      "outputs": [],
      "stateMutability": "nonpayable",
      "type": "function"
    },
    {
      "inputs": [
        {
          "internalType": "address",
          "name": "owner",
          "type": "address"
        }
      ],
      "name": "balanceOf",
      "outputs": [
        {
          "internalType": "uint256",
          "name": "",
          "type": "uint256"
        }
      ],
      "stateMutability": "view",
      "type": "function"
    },
    {
      "inputs": [
        {
          "internalType": "uint256",
          "name": "tokenId",
          "type": "uint256"
        }
      ],
      "name": "burn",
      "outputs": [],
      "stateMutability": "nonpayable",
      "type": "function"
    },
    {
      "inputs": [
        {
          "internalType": "uint256",
          "name": "tokenId",
          "type": "uint256"
        }
      ],
      "name": "getApproved",
      "outputs": [
        {
          "internalType": "address",
          "name": "",
          "type": "address"
        }
      ],
      "stateMutability": "view",
      "type": "function"
    },
    {
      "inputs": [
        {
          "internalType": "bytes32",
          "name": "role",
          "type": "bytes32"
        }
      ],
      "name": "getRoleAdmin",
      "outputs": [
        {
          "internalType": "bytes32",
          "name": "",
          "type": "bytes32"
        }
      ],
      "stateMutability": "view",
      "type": "function"
    },
    {
      "inputs": [
        {
          "internalType": "bytes32",
          "name": "role",
          "type": "bytes32"
        },
        {
          "internalType": "address",
          "name": "account",
          "type": "address"
        }
      ],
      "name": "grantRole",
      "outputs": [],
      "stateMutability": "nonpayable",
      "type": "function"
    },
    {
      "inputs": [
        {
          "internalType": "bytes32",
          "name": "role",
          "type": "bytes32"
        },
        {
          "internalType": "address",
          "name": "account",
          "type": "address"
        }
      ],
      "name": "hasRole",
      "outputs": [
        {
          "internalType": "bool",
          "name": "",
          "type": "bool"
        }
      ],
      "stateMutability": "view",
      "type": "function"
    },
    {
      "inputs": [
        {
          "internalType": "address",
          "name": "owner",
          "type": "address"
        },
        {
          "internalType": "address",
          "name": "operator",
          "type": "address"
        }
      ],
      "name": "isApprovedForAll",
      "outputs": [
        {
          "internalType": "bool",
          "name": "",
          "type": "bool"
        }
      ],
      "stateMutability": "view",
      "type": "function"
    },
    {
      "inputs": [],
      "name": "mintMemberCard",
      "outputs": [
        {
          "internalType": "uint256",
          "name": "",
          "type": "uint256"
        }
      ],
      "stateMutability": "nonpayable",
      "type": "function"
    },
    {
      "inputs": [],
      "name": "name",
      "outputs": [
        {
          "internalType": "string",
          "name": "",
          "type": "string"
        }
      ],
      "stateMutability": "view",
      "type": "function"
    },
    {
      "inputs": [
        {
          "internalType": "uint256",
          "name": "tokenId",
          "type": "uint256"
        }
      ],
      "name": "ownerOf",
      "outputs": [
        {
          "internalType": "address",
          "name": "",
          "type": "address"
        }
      ],
      "stateMutability": "view",
      "type": "function"
    },
    {
      "inputs": [
        {
          "internalType": "bytes32",
          "name": "role",
          "type": "bytes32"
        },
        {
          "internalType": "address",
          "name": "account",
          "type": "address"
        }
      ],
      "name": "renounceRole",
      "outputs": [],
      "stateMutability": "nonpayable",
      "type": "function"
    },
    {
      "inputs": [
        {
          "internalType": "bytes32",
          "name": "role",
          "type": "bytes32"
        },
        {
          "internalType": "address",
          "name": "account",
          "type": "address"
        }
      ],
      "name": "revokeRole",
      "outputs": [],
      "stateMutability": "nonpayable",
      "type": "function"
    },
    {
      "inputs": [
        {
          "internalType": "address",
          "name": "from",
          "type": "address"
        },
        {
          "internalType": "address",
          "name": "to",
          "type": "address"
        },
        {
          "internalType": "uint256",
          "name": "tokenId",
          "type": "uint256"
        }
      ],
      "name": "safeTransferFrom",
      "outputs": [],
      "stateMutability": "nonpayable",
      "type": "function"
    },
    {
      "inputs": [
        {
          "internalType": "address",
          "name": "from",
          "type": "address"
        },
        {
          "internalType": "address",
          "name": "to",
          "type": "address"
        },
        {
          "internalType": "uint256",
          "name": "tokenId",
          "type": "uint256"
        },
        {
          "internalType": "bytes",
          "name": "data",
          "type": "bytes"
        }
      ],
      "name": "safeTransferFrom",
      "outputs": [],
      "stateMutability": "nonpayable",
      "type": "function"
    },
    {
      "inputs": [
        {
          "internalType": "address",
          "name": "operator",
          "type": "address"
        },
        {
          "internalType": "bool",
          "name": "approved",
          "type": "bool"
        }
      ],
      "name": "setApprovalForAll",
      "outputs": [],
      "stateMutability": "nonpayable",
      "type": "function"
    },
    {
      "inputs": [
        {
          "internalType": "bytes4",
          "name": "interfaceId",
          "type": "bytes4"
        }
      ],
      "name": "supportsInterface",
      "outputs": [
        {
          "internalType": "bool",
          "name": "",
          "type": "bool"
        }
      ],
      "stateMutability": "view",
      "type": "function"
    },
    {
      "inputs": [],
      "name": "symbol",
      "outputs": [
        {
          "internalType": "string",
          "name": "",
          "type": "string"
        }
      ],
      "stateMutability": "view",
      "type": "function"
    },
    {
      "inputs": [
        {
          "internalType": "uint256",
          "name": "index",
          "type": "uint256"
        }
      ],
      "name": "tokenByIndex",
      "outputs": [
        {
          "internalType": "uint256",
          "name": "",
          "type": "uint256"
        }
      ],
      "stateMutability": "view",
      "type": "function"
    },
    {
      "inputs": [
        {
          "internalType": "address",
          "name": "owner",
          "type": "address"
        },
        {
          "internalType": "uint256",
          "name": "index",
          "type": "uint256"
        }
      ],
      "name": "tokenOfOwnerByIndex",
      "outputs": [
        {
          "internalType": "uint256",
          "name": "",
          "type": "uint256"
        }
      ],
      "stateMutability": "view",
      "type": "function"
    },
    {
      "inputs": [
        {
          "internalType": "uint256",
          "name": "tokenId",
          "type": "uint256"
        }
      ],
      "name": "tokenURI",
      "outputs": [
        {
          "internalType": "string",
          "name": "",
          "type": "string"
        }
      ],
      "stateMutability": "view",
      "type": "function"
    },
    {
      "inputs": [],
      "name": "totalSupply",
      "outputs": [
        {
          "internalType": "uint256",
          "name": "",
          "type": "uint256"
        }
      ],
      "stateMutability": "view",
      "type": "function"
    },
    {
      "inputs": [
        {
          "internalType": "address",
          "name": "from",
          "type": "address"
        },
        {
          "internalType": "address",
          "name": "to",
          "type": "address"
        },
        {
          "internalType": "uint256",
          "name": "tokenId",
          "type": "uint256"
        }
      ],
      "name": "transferFrom",
      "outputs": [],
      "stateMutability": "nonpayable",
      "type": "function"
    }
  ],
  "bytecode": "0x60806040523480156200001157600080fd5b5060405162003d5438038062003d548339818101604052810190620000379190620002b2565b6040518060400160405280600a81526020017f4d656d62657243617264000000000000000000000000000000000000000000008152506040518060400160405280600481526020017f53575353000000000000000000000000000000000000000000000000000000008152508160019081620000b491906200055e565b508060029081620000c691906200055e565b505050620000de6000801b82620000e560201b60201c565b5062000645565b620000f78282620001d660201b60201c565b620001d257600160008084815260200190815260200160002060000160008373ffffffffffffffffffffffffffffffffffffffff1673ffffffffffffffffffffffffffffffffffffffff16815260200190815260200160002060006101000a81548160ff021916908315150217905550620001776200024060201b60201c565b73ffffffffffffffffffffffffffffffffffffffff168173ffffffffffffffffffffffffffffffffffffffff16837f2f8788117e7eff1d82e926ec794901d17c78024a50270940304540a733656f0d60405160405180910390a45b5050565b600080600084815260200190815260200160002060000160008373ffffffffffffffffffffffffffffffffffffffff1673ffffffffffffffffffffffffffffffffffffffff16815260200190815260200160002060009054906101000a900460ff16905092915050565b600033905090565b600080fd5b600073ffffffffffffffffffffffffffffffffffffffff82169050919050565b60006200027a826200024d565b9050919050565b6200028c816200026d565b81146200029857600080fd5b50565b600081519050620002ac8162000281565b92915050565b600060208284031215620002cb57620002ca62000248565b5b6000620002db848285016200029b565b91505092915050565b600081519050919050565b7f4e487b7100000000000000000000000000000000000000000000000000000000600052604160045260246000fd5b7f4e487b7100000000000000000000000000000000000000000000000000000000600052602260045260246000fd5b600060028204905060018216806200036657607f821691505b6020821081036200037c576200037b6200031e565b5b50919050565b60008190508160005260206000209050919050565b60006020601f8301049050919050565b600082821b905092915050565b600060088302620003e67fffffffffffffffffffffffffffffffffffffffffffffffffffffffffffffffff82620003a7565b620003f28683620003a7565b95508019841693508086168417925050509392505050565b6000819050919050565b6000819050919050565b60006200043f6200043962000433846200040a565b62000414565b6200040a565b9050919050565b6000819050919050565b6200045b836200041e565b620004736200046a8262000446565b848454620003b4565b825550505050565b600090565b6200048a6200047b565b6200049781848462000450565b505050565b5b81811015620004bf57620004b360008262000480565b6001810190506200049d565b5050565b601f8211156200050e57620004d88162000382565b620004e38462000397565b81016020851015620004f3578190505b6200050b620005028562000397565b8301826200049c565b50505b505050565b600082821c905092915050565b6000620005336000198460080262000513565b1980831691505092915050565b60006200054e838362000520565b9150826002028217905092915050565b6200056982620002e4565b67ffffffffffffffff811115620005855762000584620002ef565b5b6200059182546200034d565b6200059e828285620004c3565b600060209050601f831160018114620005d65760008415620005c1578287015190505b620005cd858262000540565b8655506200063d565b601f198416620005e68662000382565b60005b828110156200061057848901518255600182019150602085019450602081019050620005e9565b868310156200063057848901516200062c601f89168262000520565b8355505b6001600288020188555050505b505050505050565b6136ff80620006556000396000f3fe608060405234801561001057600080fd5b50600436106101735760003560e01c806342966c68116100de578063a217fddf11610097578063c87b56dd11610071578063c87b56dd1461046e578063d547741f1461049e578063ded8bdcf146104ba578063e985e9c5146104d857610173565b8063a217fddf14610418578063a22cb46514610436578063b88d4fde1461045257610173565b806342966c681461031e5780634f6ccce71461033a5780636352211e1461036a57806370a082311461039a57806391d14854146103ca57806395d89b41146103fa57610173565b8063248a9ca311610130578063248a9ca31461024c5780632f2ff15d1461027c5780632f745c591461029857806331fa4152146102c857806336568abe146102e657806342842e0e1461030257610173565b806301ffc9a71461017857806306fdde03146101a8578063081812fc146101c6578063095ea7b3146101f657806318160ddd1461021257806323b872dd14610230575b600080fd5b610192600480360381019061018d91906121b5565b610508565b60405161019f91906121fd565b60405180910390f35b6101b061051a565b6040516101bd91906122a8565b60405180910390f35b6101e060048036038101906101db9190612300565b6105ac565b6040516101ed919061236e565b60405180910390f35b610210600480360381019061020b91906123b5565b6105f2565b005b61021a610709565b6040516102279190612404565b60405180910390f35b61024a6004803603810190610245919061241f565b610716565b005b610266600480360381019061026191906124a8565b610776565b60405161027391906124e4565b60405180910390f35b610296600480360381019061029191906124ff565b610795565b005b6102b260048036038101906102ad91906123b5565b6107b6565b6040516102bf9190612404565b60405180910390f35b6102d061085b565b6040516102dd9190612404565b60405180910390f35b61030060048036038101906102fb91906124ff565b610910565b005b61031c6004803603810190610317919061241f565b610993565b005b61033860048036038101906103339190612300565b6109b3565b005b610354600480360381019061034f9190612300565b610a0f565b6040516103619190612404565b60405180910390f35b610384600480360381019061037f9190612300565b610a80565b604051610391919061236e565b60405180910390f35b6103b460048036038101906103af919061253f565b610b31565b6040516103c19190612404565b60405180910390f35b6103e460048036038101906103df91906124ff565b610be8565b6040516103f191906121fd565b60405180910390f35b610402610c52565b60405161040f91906122a8565b60405180910390f35b610420610ce4565b60405161042d91906124e4565b60405180910390f35b610450600480360381019061044b9190612598565b610ceb565b005b61046c6004803603810190610467919061270d565b610d01565b005b61048860048036038101906104839190612300565b610d63565b60405161049591906122a8565b60405180910390f35b6104b860048036038101906104b391906124ff565b610d85565b005b6104c2610da6565b6040516104cf919061236e565b60405180910390f35b6104f260048036038101906104ed9190612790565b610dcc565b6040516104ff91906121fd565b60405180910390f35b600061051382610e60565b9050919050565b606060018054610529906127ff565b80601f0160208091040260200160405190810160405280929190818152602001828054610555906127ff565b80156105a25780601f10610577576101008083540402835291602001916105a2565b820191906000526020600020905b81548152906001019060200180831161058557829003601f168201915b5050505050905090565b60006105b782610eda565b6005600083815260200190815260200160002060009054906101000a900473ffffffffffffffffffffffffffffffffffffffff169050919050565b60006105fd82610a80565b90508073ffffffffffffffffffffffffffffffffffffffff168373ffffffffffffffffffffffffffffffffffffffff160361066d576040517f08c379a0000000000000000000000000000000000000000000000000000000008152600401610664906128a2565b60405180910390fd5b8073ffffffffffffffffffffffffffffffffffffffff1661068c610f25565b73ffffffffffffffffffffffffffffffffffffffff1614806106bb57506106ba816106b5610f25565b610dcc565b5b6106fa576040517f08c379a00000000000000000000000000000000000000000000000000000000081526004016106f190612934565b60405180910390fd5b6107048383610f2d565b505050565b6000600a80549050905090565b610727610721610f25565b82610fe6565b610766576040517f08c379a000000000000000000000000000000000000000000000000000000000815260040161075d906129c6565b60405180910390fd5b61077183838361107b565b505050565b6000806000838152602001908152602001600020600101549050919050565b61079e82610776565b6107a7816112e1565b6107b183836112f5565b505050565b60006107c183610b31565b8210610802576040517f08c379a00000000000000000000000000000000000000000000000000000000081526004016107f990612a58565b60405180910390fd5b600860008473ffffffffffffffffffffffffffffffffffffffff1673ffffffffffffffffffffffffffffffffffffffff168152602001908152602001600020600083815260200190815260200160002054905092915050565b600080610868600f6113d5565b905061087433826113e3565b6108868161088183610d63565b611401565b6000600c60003373ffffffffffffffffffffffffffffffffffffffff1673ffffffffffffffffffffffffffffffffffffffff168152602001908152602001600020600083815260200190815260200160002060006101000a81548160ff021916908360038111156108fa576108f9612a78565b5b0217905550610909600f61146e565b8091505090565b610918610f25565b73ffffffffffffffffffffffffffffffffffffffff168173ffffffffffffffffffffffffffffffffffffffff1614610985576040517f08c379a000000000000000000000000000000000000000000000000000000000815260040161097c90612b19565b60405180910390fd5b61098f8282611484565b5050565b6109ae83838360405180602001604052806000815250610d01565b505050565b6109c46109be610f25565b82610fe6565b610a03576040517f08c379a00000000000000000000000000000000000000000000000000000000081526004016109fa906129c6565b60405180910390fd5b610a0c81611565565b50565b6000610a19610709565b8210610a5a576040517f08c379a0000000000000000000000000000000000000000000000000000000008152600401610a5190612bab565b60405180910390fd5b600a8281548110610a6e57610a6d612bcb565b5b90600052602060002001549050919050565b6000806003600084815260200190815260200160002060009054906101000a900473ffffffffffffffffffffffffffffffffffffffff169050600073ffffffffffffffffffffffffffffffffffffffff168173ffffffffffffffffffffffffffffffffffffffff1603610b28576040517f08c379a0000000000000000000000000000000000000000000000000000000008152600401610b1f90612c46565b60405180910390fd5b80915050919050565b60008073ffffffffffffffffffffffffffffffffffffffff168273ffffffffffffffffffffffffffffffffffffffff1603610ba1576040517f08c379a0000000000000000000000000000000000000000000000000000000008152600401610b9890612cd8565b60405180910390fd5b600460008373ffffffffffffffffffffffffffffffffffffffff1673ffffffffffffffffffffffffffffffffffffffff168152602001908152602001600020549050919050565b600080600084815260200190815260200160002060000160008373ffffffffffffffffffffffffffffffffffffffff1673ffffffffffffffffffffffffffffffffffffffff16815260200190815260200160002060009054906101000a900460ff16905092915050565b606060028054610c61906127ff565b80601f0160208091040260200160405190810160405280929190818152602001828054610c8d906127ff565b8015610cda5780601f10610caf57610100808354040283529160200191610cda565b820191906000526020600020905b815481529060010190602001808311610cbd57829003601f168201915b5050505050905090565b6000801b81565b610cfd610cf6610f25565b8383611571565b5050565b610d12610d0c610f25565b83610fe6565b610d51576040517f08c379a0000000000000000000000000000000000000000000000000000000008152600401610d48906129c6565b60405180910390fd5b610d5d848484846116dd565b50505050565b606060405180608001604052806050815260200161367a605091399050919050565b610d8e82610776565b610d97816112e1565b610da18383611484565b505050565b601060009054906101000a900473ffffffffffffffffffffffffffffffffffffffff1681565b6000600660008473ffffffffffffffffffffffffffffffffffffffff1673ffffffffffffffffffffffffffffffffffffffff16815260200190815260200160002060008373ffffffffffffffffffffffffffffffffffffffff1673ffffffffffffffffffffffffffffffffffffffff16815260200190815260200160002060009054906101000a900460ff16905092915050565b60007f780e9d63000000000000000000000000000000000000000000000000000000007bffffffffffffffffffffffffffffffffffffffffffffffffffffffff1916827bffffffffffffffffffffffffffffffffffffffffffffffffffffffff19161480610ed35750610ed282611739565b5b9050919050565b610ee38161181b565b610f22576040517f08c379a0000000000000000000000000000000000000000000000000000000008152600401610f1990612c46565b60405180910390fd5b50565b600033905090565b816005600083815260200190815260200160002060006101000a81548173ffffffffffffffffffffffffffffffffffffffff021916908373ffffffffffffffffffffffffffffffffffffffff160217905550808273ffffffffffffffffffffffffffffffffffffffff16610fa083610a80565b73ffffffffffffffffffffffffffffffffffffffff167f8c5be1e5ebec7d5bd14f71427d1e84f3dd0314c0f7b2291e5b200ac8c7c3b92560405160405180910390a45050565b600080610ff283610a80565b90508073ffffffffffffffffffffffffffffffffffffffff168473ffffffffffffffffffffffffffffffffffffffff16148061103457506110338185610dcc565b5b8061107257508373ffffffffffffffffffffffffffffffffffffffff1661105a846105ac565b73ffffffffffffffffffffffffffffffffffffffff16145b91505092915050565b8273ffffffffffffffffffffffffffffffffffffffff1661109b82610a80565b73ffffffffffffffffffffffffffffffffffffffff16146110f1576040517f08c379a00000000000000000000000000000000000000000000000000000000081526004016110e890612d6a565b60405180910390fd5b600073ffffffffffffffffffffffffffffffffffffffff168273ffffffffffffffffffffffffffffffffffffffff1603611160576040517f08c379a000000000000000000000000000000000000000000000000000000000815260040161115790612dfc565b60405180910390fd5b61116b838383611887565b611176600082610f2d565b6001600460008573ffffffffffffffffffffffffffffffffffffffff1673ffffffffffffffffffffffffffffffffffffffff16815260200190815260200160002060008282546111c69190612e4b565b925050819055506001600460008473ffffffffffffffffffffffffffffffffffffffff1673ffffffffffffffffffffffffffffffffffffffff168152602001908152602001600020600082825461121d9190612e7f565b92505081905550816003600083815260200190815260200160002060006101000a81548173ffffffffffffffffffffffffffffffffffffffff021916908373ffffffffffffffffffffffffffffffffffffffff160217905550808273ffffffffffffffffffffffffffffffffffffffff168473ffffffffffffffffffffffffffffffffffffffff167fddf252ad1be2c89b69c2b068fc378daa952ba7f163c4a11628f55a4df523b3ef60405160405180910390a46112dc83838361188c565b505050565b6112f2816112ed610f25565b611891565b50565b6112ff8282610be8565b6113d157600160008084815260200190815260200160002060000160008373ffffffffffffffffffffffffffffffffffffffff1673ffffffffffffffffffffffffffffffffffffffff16815260200190815260200160002060006101000a81548160ff021916908315150217905550611376610f25565b73ffffffffffffffffffffffffffffffffffffffff168173ffffffffffffffffffffffffffffffffffffffff16837f2f8788117e7eff1d82e926ec794901d17c78024a50270940304540a733656f0d60405160405180910390a45b5050565b600081600001549050919050565b6113fd82826040518060200160405280600081525061192e565b5050565b61140a8261181b565b611449576040517f08c379a000000000000000000000000000000000000000000000000000000000815260040161144090612f25565b60405180910390fd5b8060076000848152602001908152602001600020908161146991906130f1565b505050565b6001816000016000828254019250508190555050565b61148e8282610be8565b1561156157600080600084815260200190815260200160002060000160008373ffffffffffffffffffffffffffffffffffffffff1673ffffffffffffffffffffffffffffffffffffffff16815260200190815260200160002060006101000a81548160ff021916908315150217905550611506610f25565b73ffffffffffffffffffffffffffffffffffffffff168173ffffffffffffffffffffffffffffffffffffffff16837ff6391f5c32d9c69d2a47ea670b442974b53935d1edc7fd64eb21e047a839171b60405160405180910390a45b5050565b61156e81611989565b50565b8173ffffffffffffffffffffffffffffffffffffffff168373ffffffffffffffffffffffffffffffffffffffff16036115df576040517f08c379a00000000000000000000000000000000000000000000000000000000081526004016115d69061320f565b60405180910390fd5b80600660008573ffffffffffffffffffffffffffffffffffffffff1673ffffffffffffffffffffffffffffffffffffffff16815260200190815260200160002060008473ffffffffffffffffffffffffffffffffffffffff1673ffffffffffffffffffffffffffffffffffffffff16815260200190815260200160002060006101000a81548160ff0219169083151502179055508173ffffffffffffffffffffffffffffffffffffffff168373ffffffffffffffffffffffffffffffffffffffff167f17307eab39ab6107e8899845ad3d59bd9653f200f220920489ca2b5937696c31836040516116d091906121fd565b60405180910390a3505050565b6116e884848461107b565b6116f484848484611aa6565b611733576040517f08c379a000000000000000000000000000000000000000000000000000000000815260040161172a906132a1565b60405180910390fd5b50505050565b60007f80ac58cd000000000000000000000000000000000000000000000000000000007bffffffffffffffffffffffffffffffffffffffffffffffffffffffff1916827bffffffffffffffffffffffffffffffffffffffffffffffffffffffff1916148061180457507f5b5e139f000000000000000000000000000000000000000000000000000000007bffffffffffffffffffffffffffffffffffffffffffffffffffffffff1916827bffffffffffffffffffffffffffffffffffffffffffffffffffffffff1916145b80611814575061181382611c2d565b5b9050919050565b60008073ffffffffffffffffffffffffffffffffffffffff166003600084815260200190815260200160002060009054906101000a900473ffffffffffffffffffffffffffffffffffffffff1673ffffffffffffffffffffffffffffffffffffffff1614159050919050565b505050565b505050565b61189b8282610be8565b61192a576118c08173ffffffffffffffffffffffffffffffffffffffff166014611ca7565b6118ce8360001c6020611ca7565b6040516020016118df929190613395565b6040516020818303038152906040526040517f08c379a000000000000000000000000000000000000000000000000000000000815260040161192191906122a8565b60405180910390fd5b5050565b6119388383611ee3565b6119456000848484611aa6565b611984576040517f08c379a000000000000000000000000000000000000000000000000000000000815260040161197b906132a1565b60405180910390fd5b505050565b600061199482610a80565b90506119a281600084611887565b6119ad600083610f2d565b6001600460008373ffffffffffffffffffffffffffffffffffffffff1673ffffffffffffffffffffffffffffffffffffffff16815260200190815260200160002060008282546119fd9190612e4b565b925050819055506003600083815260200190815260200160002060006101000a81549073ffffffffffffffffffffffffffffffffffffffff021916905581600073ffffffffffffffffffffffffffffffffffffffff168273ffffffffffffffffffffffffffffffffffffffff167fddf252ad1be2c89b69c2b068fc378daa952ba7f163c4a11628f55a4df523b3ef60405160405180910390a4611aa28160008461188c565b5050565b6000611ac78473ffffffffffffffffffffffffffffffffffffffff166120bc565b15611c20578373ffffffffffffffffffffffffffffffffffffffff1663150b7a02611af0610f25565b8786866040518563ffffffff1660e01b8152600401611b129493929190613424565b6020604051808303816000875af1925050508015611b4e57506040513d601f19601f82011682018060405250810190611b4b9190613485565b60015b611bd0573d8060008114611b7e576040519150601f19603f3d011682016040523d82523d6000602084013e611b83565b606091505b506000815103611bc8576040517f08c379a0000000000000000000000000000000000000000000000000000000008152600401611bbf906132a1565b60405180910390fd5b805181602001fd5b63150b7a0260e01b7bffffffffffffffffffffffffffffffffffffffffffffffffffffffff1916817bffffffffffffffffffffffffffffffffffffffffffffffffffffffff191614915050611c25565b600190505b949350505050565b60007f7965db0b000000000000000000000000000000000000000000000000000000007bffffffffffffffffffffffffffffffffffffffffffffffffffffffff1916827bffffffffffffffffffffffffffffffffffffffffffffffffffffffff19161480611ca05750611c9f826120df565b5b9050919050565b606060006002836002611cba91906134b2565b611cc49190612e7f565b67ffffffffffffffff811115611cdd57611cdc6125e2565b5b6040519080825280601f01601f191660200182016040528015611d0f5781602001600182028036833780820191505090505b5090507f300000000000000000000000000000000000000000000000000000000000000081600081518110611d4757611d46612bcb565b5b60200101907effffffffffffffffffffffffffffffffffffffffffffffffffffffffffffff1916908160001a9053507f780000000000000000000000000000000000000000000000000000000000000081600181518110611dab57611daa612bcb565b5b60200101907effffffffffffffffffffffffffffffffffffffffffffffffffffffffffffff1916908160001a90535060006001846002611deb91906134b2565b611df59190612e7f565b90505b6001811115611e95577f3031323334353637383961626364656600000000000000000000000000000000600f861660108110611e3757611e36612bcb565b5b1a60f81b828281518110611e4e57611e4d612bcb565b5b60200101907effffffffffffffffffffffffffffffffffffffffffffffffffffffffffffff1916908160001a905350600485901c945080611e8e9061350c565b9050611df8565b5060008414611ed9576040517f08c379a0000000000000000000000000000000000000000000000000000000008152600401611ed090613581565b60405180910390fd5b8091505092915050565b600073ffffffffffffffffffffffffffffffffffffffff168273ffffffffffffffffffffffffffffffffffffffff1603611f52576040517f08c379a0000000000000000000000000000000000000000000000000000000008152600401611f49906135ed565b60405180910390fd5b611f5b8161181b565b15611f9b576040517f08c379a0000000000000000000000000000000000000000000000000000000008152600401611f9290613659565b60405180910390fd5b611fa760008383611887565b6001600460008473ffffffffffffffffffffffffffffffffffffffff1673ffffffffffffffffffffffffffffffffffffffff1681526020019081526020016000206000828254611ff79190612e7f565b92505081905550816003600083815260200190815260200160002060006101000a81548173ffffffffffffffffffffffffffffffffffffffff021916908373ffffffffffffffffffffffffffffffffffffffff160217905550808273ffffffffffffffffffffffffffffffffffffffff16600073ffffffffffffffffffffffffffffffffffffffff167fddf252ad1be2c89b69c2b068fc378daa952ba7f163c4a11628f55a4df523b3ef60405160405180910390a46120b86000838361188c565b5050565b6000808273ffffffffffffffffffffffffffffffffffffffff163b119050919050565b60007f01ffc9a7000000000000000000000000000000000000000000000000000000007bffffffffffffffffffffffffffffffffffffffffffffffffffffffff1916827bffffffffffffffffffffffffffffffffffffffffffffffffffffffff1916149050919050565b6000604051905090565b600080fd5b600080fd5b60007fffffffff0000000000000000000000000000000000000000000000000000000082169050919050565b6121928161215d565b811461219d57600080fd5b50565b6000813590506121af81612189565b92915050565b6000602082840312156121cb576121ca612153565b5b60006121d9848285016121a0565b91505092915050565b60008115159050919050565b6121f7816121e2565b82525050565b600060208201905061221260008301846121ee565b92915050565b600081519050919050565b600082825260208201905092915050565b60005b83811015612252578082015181840152602081019050612237565b60008484015250505050565b6000601f19601f8301169050919050565b600061227a82612218565b6122848185612223565b9350612294818560208601612234565b61229d8161225e565b840191505092915050565b600060208201905081810360008301526122c2818461226f565b905092915050565b6000819050919050565b6122dd816122ca565b81146122e857600080fd5b50565b6000813590506122fa816122d4565b92915050565b60006020828403121561231657612315612153565b5b6000612324848285016122eb565b91505092915050565b600073ffffffffffffffffffffffffffffffffffffffff82169050919050565b60006123588261232d565b9050919050565b6123688161234d565b82525050565b6000602082019050612383600083018461235f565b92915050565b6123928161234d565b811461239d57600080fd5b50565b6000813590506123af81612389565b92915050565b600080604083850312156123cc576123cb612153565b5b60006123da858286016123a0565b92505060206123eb858286016122eb565b9150509250929050565b6123fe816122ca565b82525050565b600060208201905061241960008301846123f5565b92915050565b60008060006060848603121561243857612437612153565b5b6000612446868287016123a0565b9350506020612457868287016123a0565b9250506040612468868287016122eb565b9150509250925092565b6000819050919050565b61248581612472565b811461249057600080fd5b50565b6000813590506124a28161247c565b92915050565b6000602082840312156124be576124bd612153565b5b60006124cc84828501612493565b91505092915050565b6124de81612472565b82525050565b60006020820190506124f960008301846124d5565b92915050565b6000806040838503121561251657612515612153565b5b600061252485828601612493565b9250506020612535858286016123a0565b9150509250929050565b60006020828403121561255557612554612153565b5b6000612563848285016123a0565b91505092915050565b612575816121e2565b811461258057600080fd5b50565b6000813590506125928161256c565b92915050565b600080604083850312156125af576125ae612153565b5b60006125bd858286016123a0565b92505060206125ce85828601612583565b9150509250929050565b600080fd5b600080fd5b7f4e487b7100000000000000000000000000000000000000000000000000000000600052604160045260246000fd5b61261a8261225e565b810181811067ffffffffffffffff82111715612639576126386125e2565b5b80604052505050565b600061264c612149565b90506126588282612611565b919050565b600067ffffffffffffffff821115612678576126776125e2565b5b6126818261225e565b9050602081019050919050565b82818337600083830152505050565b60006126b06126ab8461265d565b612642565b9050828152602081018484840111156126cc576126cb6125dd565b5b6126d784828561268e565b509392505050565b600082601f8301126126f4576126f36125d8565b5b813561270484826020860161269d565b91505092915050565b6000806000806080858703121561272757612726612153565b5b6000612735878288016123a0565b9450506020612746878288016123a0565b9350506040612757878288016122eb565b925050606085013567ffffffffffffffff81111561277857612777612158565b5b612784878288016126df565b91505092959194509250565b600080604083850312156127a7576127a6612153565b5b60006127b5858286016123a0565b92505060206127c6858286016123a0565b9150509250929050565b7f4e487b7100000000000000000000000000000000000000000000000000000000600052602260045260246000fd5b6000600282049050600182168061281757607f821691505b60208210810361282a576128296127d0565b5b50919050565b7f4552433732313a20617070726f76616c20746f2063757272656e74206f776e6560008201527f7200000000000000000000000000000000000000000000000000000000000000602082015250565b600061288c602183612223565b915061289782612830565b604082019050919050565b600060208201905081810360008301526128bb8161287f565b9050919050565b7f4552433732313a20617070726f76652063616c6c6572206973206e6f7420746f60008201527f6b656e206f776e6572206e6f7220617070726f76656420666f7220616c6c0000602082015250565b600061291e603e83612223565b9150612929826128c2565b604082019050919050565b6000602082019050818103600083015261294d81612911565b9050919050565b7f4552433732313a2063616c6c6572206973206e6f7420746f6b656e206f776e6560008201527f72206e6f7220617070726f766564000000000000000000000000000000000000602082015250565b60006129b0602e83612223565b91506129bb82612954565b604082019050919050565b600060208201905081810360008301526129df816129a3565b9050919050565b7f455243373231456e756d657261626c653a206f776e657220696e646578206f7560008201527f74206f6620626f756e6473000000000000000000000000000000000000000000602082015250565b6000612a42602b83612223565b9150612a4d826129e6565b604082019050919050565b60006020820190508181036000830152612a7181612a35565b9050919050565b7f4e487b7100000000000000000000000000000000000000000000000000000000600052602160045260246000fd5b7f416363657373436f6e74726f6c3a2063616e206f6e6c792072656e6f756e636560008201527f20726f6c657320666f722073656c660000000000000000000000000000000000602082015250565b6000612b03602f83612223565b9150612b0e82612aa7565b604082019050919050565b60006020820190508181036000830152612b3281612af6565b9050919050565b7f455243373231456e756d657261626c653a20676c6f62616c20696e646578206f60008201527f7574206f6620626f756e64730000000000000000000000000000000000000000602082015250565b6000612b95602c83612223565b9150612ba082612b39565b604082019050919050565b60006020820190508181036000830152612bc481612b88565b9050919050565b7f4e487b7100000000000000000000000000000000000000000000000000000000600052603260045260246000fd5b7f4552433732313a20696e76616c696420746f6b656e2049440000000000000000600082015250565b6000612c30601883612223565b9150612c3b82612bfa565b602082019050919050565b60006020820190508181036000830152612c5f81612c23565b9050919050565b7f4552433732313a2061646472657373207a65726f206973206e6f74206120766160008201527f6c6964206f776e65720000000000000000000000000000000000000000000000602082015250565b6000612cc2602983612223565b9150612ccd82612c66565b604082019050919050565b60006020820190508181036000830152612cf181612cb5565b9050919050565b7f4552433732313a207472616e736665722066726f6d20696e636f72726563742060008201527f6f776e6572000000000000000000000000000000000000000000000000000000602082015250565b6000612d54602583612223565b9150612d5f82612cf8565b604082019050919050565b60006020820190508181036000830152612d8381612d47565b9050919050565b7f4552433732313a207472616e7366657220746f20746865207a65726f2061646460008201527f7265737300000000000000000000000000000000000000000000000000000000602082015250565b6000612de6602483612223565b9150612df182612d8a565b604082019050919050565b60006020820190508181036000830152612e1581612dd9565b9050919050565b7f4e487b7100000000000000000000000000000000000000000000000000000000600052601160045260246000fd5b6000612e56826122ca565b9150612e61836122ca565b9250828203905081811115612e7957612e78612e1c565b5b92915050565b6000612e8a826122ca565b9150612e95836122ca565b9250828201905080821115612ead57612eac612e1c565b5b92915050565b7f45524337323155524953746f726167653a2055524920736574206f66206e6f6e60008201527f6578697374656e7420746f6b656e000000000000000000000000000000000000602082015250565b6000612f0f602e83612223565b9150612f1a82612eb3565b604082019050919050565b60006020820190508181036000830152612f3e81612f02565b9050919050565b60008190508160005260206000209050919050565b60006020601f8301049050919050565b600082821b905092915050565b600060088302612fa77fffffffffffffffffffffffffffffffffffffffffffffffffffffffffffffffff82612f6a565b612fb18683612f6a565b95508019841693508086168417925050509392505050565b6000819050919050565b6000612fee612fe9612fe4846122ca565b612fc9565b6122ca565b9050919050565b6000819050919050565b61300883612fd3565b61301c61301482612ff5565b848454612f77565b825550505050565b600090565b613031613024565b61303c818484612fff565b505050565b5b8181101561306057613055600082613029565b600181019050613042565b5050565b601f8211156130a55761307681612f45565b61307f84612f5a565b8101602085101561308e578190505b6130a261309a85612f5a565b830182613041565b50505b505050565b600082821c905092915050565b60006130c8600019846008026130aa565b1980831691505092915050565b60006130e183836130b7565b9150826002028217905092915050565b6130fa82612218565b67ffffffffffffffff811115613113576131126125e2565b5b61311d82546127ff565b613128828285613064565b600060209050601f83116001811461315b5760008415613149578287015190505b61315385826130d5565b8655506131bb565b601f19841661316986612f45565b60005b828110156131915784890151825560018201915060208501945060208101905061316c565b868310156131ae57848901516131aa601f8916826130b7565b8355505b6001600288020188555050505b505050505050565b7f4552433732313a20617070726f766520746f2063616c6c657200000000000000600082015250565b60006131f9601983612223565b9150613204826131c3565b602082019050919050565b60006020820190508181036000830152613228816131ec565b9050919050565b7f4552433732313a207472616e7366657220746f206e6f6e20455243373231526560008201527f63656976657220696d706c656d656e7465720000000000000000000000000000602082015250565b600061328b603283612223565b91506132968261322f565b604082019050919050565b600060208201905081810360008301526132ba8161327e565b9050919050565b600081905092915050565b7f416363657373436f6e74726f6c3a206163636f756e7420000000000000000000600082015250565b60006133026017836132c1565b915061330d826132cc565b601782019050919050565b600061332382612218565b61332d81856132c1565b935061333d818560208601612234565b80840191505092915050565b7f206973206d697373696e6720726f6c6520000000000000000000000000000000600082015250565b600061337f6011836132c1565b915061338a82613349565b601182019050919050565b60006133a0826132f5565b91506133ac8285613318565b91506133b782613372565b91506133c38284613318565b91508190509392505050565b600081519050919050565b600082825260208201905092915050565b60006133f6826133cf565b61340081856133da565b9350613410818560208601612234565b6134198161225e565b840191505092915050565b6000608082019050613439600083018761235f565b613446602083018661235f565b61345360408301856123f5565b818103606083015261346581846133eb565b905095945050505050565b60008151905061347f81612189565b92915050565b60006020828403121561349b5761349a612153565b5b60006134a984828501613470565b91505092915050565b60006134bd826122ca565b91506134c8836122ca565b9250817fffffffffffffffffffffffffffffffffffffffffffffffffffffffffffffffff048311821515161561350157613500612e1c565b5b828202905092915050565b6000613517826122ca565b91506000820361352a57613529612e1c565b5b600182039050919050565b7f537472696e67733a20686578206c656e67746820696e73756666696369656e74600082015250565b600061356b602083612223565b915061357682613535565b602082019050919050565b6000602082019050818103600083015261359a8161355e565b9050919050565b7f4552433732313a206d696e7420746f20746865207a65726f2061646472657373600082015250565b60006135d7602083612223565b91506135e2826135a1565b602082019050919050565b60006020820190508181036000830152613606816135ca565b9050919050565b7f4552433732313a20746f6b656e20616c7265616479206d696e74656400000000600082015250565b6000613643601c83612223565b915061364e8261360d565b602082019050919050565b6000602082019050818103600083015261367281613636565b905091905056fe68747470733a2f2f676174657761792e70696e6174612e636c6f75642f697066732f516d526a39317a6a42614d6a554874784a6e4768333255764d365774643466584e587438637a41424c7575437345a2646970667358221220d52738330b808ce4f7185da7d54f97b003baece01dc846a4ce693804abcb67c064736f6c63430008100033",
  "linkReferences": {},
  "deployedLinkReferences": {}
}