{
  "_format": "hh-sol-artifact-1",
  "contractName": "MemberCard",
  "sourceName": "contracts/MemberCard.sol",
  "abi": [
    {
      "inputs": [
        {
          "internalType": "address",
          "name": "_dispatcher",
          "type": "address"
        }
      ],
      "stateMutability": "nonpayable",
      "type": "constructor"
    },
    {
      "anonymous": false,
      "inputs": [
        {
          "indexed": true,
          "internalType": "address",
          "name": "owner",
          "type": "address"
        },
        {
          "indexed": true,
          "internalType": "address",
          "name": "approved",
          "type": "address"
        },
        {
          "indexed": true,
          "internalType": "uint256",
          "name": "tokenId",
          "type": "uint256"
        }
      ],
      "name": "Approval",
      "type": "event"
    },
    {
      "anonymous": false,
      "inputs": [
        {
          "indexed": true,
          "internalType": "address",
          "name": "owner",
          "type": "address"
        },
        {
          "indexed": true,
          "internalType": "address",
          "name": "operator",
          "type": "address"
        },
        {
          "indexed": false,
          "internalType": "bool",
          "name": "approved",
          "type": "bool"
        }
      ],
      "name": "ApprovalForAll",
      "type": "event"
    },
    {
      "anonymous": false,
      "inputs": [
        {
          "indexed": true,
          "internalType": "bytes32",
          "name": "role",
          "type": "bytes32"
        },
        {
          "indexed": true,
          "internalType": "bytes32",
          "name": "previousAdminRole",
          "type": "bytes32"
        },
        {
          "indexed": true,
          "internalType": "bytes32",
          "name": "newAdminRole",
          "type": "bytes32"
        }
      ],
      "name": "RoleAdminChanged",
      "type": "event"
    },
    {
      "anonymous": false,
      "inputs": [
        {
          "indexed": true,
          "internalType": "bytes32",
          "name": "role",
          "type": "bytes32"
        },
        {
          "indexed": true,
          "internalType": "address",
          "name": "account",
          "type": "address"
        },
        {
          "indexed": true,
          "internalType": "address",
          "name": "sender",
          "type": "address"
        }
      ],
      "name": "RoleGranted",
      "type": "event"
    },
    {
      "anonymous": false,
      "inputs": [
        {
          "indexed": true,
          "internalType": "bytes32",
          "name": "role",
          "type": "bytes32"
        },
        {
          "indexed": true,
          "internalType": "address",
          "name": "account",
          "type": "address"
        },
        {
          "indexed": true,
          "internalType": "address",
          "name": "sender",
          "type": "address"
        }
      ],
      "name": "RoleRevoked",
      "type": "event"
    },
    {
      "anonymous": false,
      "inputs": [
        {
          "indexed": true,
          "internalType": "address",
          "name": "from",
          "type": "address"
        },
        {
          "indexed": true,
          "internalType": "address",
          "name": "to",
          "type": "address"
        },
        {
          "indexed": true,
          "internalType": "uint256",
          "name": "tokenId",
          "type": "uint256"
        }
      ],
      "name": "Transfer",
      "type": "event"
    },
    {
      "inputs": [],
      "name": "DEFAULT_ADMIN_ROLE",
      "outputs": [
        {
          "internalType": "bytes32",
          "name": "",
          "type": "bytes32"
        }
      ],
      "stateMutability": "view",
      "type": "function"
    },
    {
      "inputs": [],
      "name": "DISPATCHER_ADDRESS",
      "outputs": [
        {
          "internalType": "address",
          "name": "",
          "type": "address"
        }
      ],
      "stateMutability": "view",
      "type": "function"
    },
    {
      "inputs": [
        {
          "internalType": "address",
          "name": "to",
          "type": "address"
        },
        {
          "internalType": "uint256",
          "name": "tokenId",
          "type": "uint256"
        }
      ],
      "name": "approve",
      "outputs": [],
      "stateMutability": "nonpayable",
      "type": "function"
    },
    {
      "inputs": [
        {
          "internalType": "address",
          "name": "owner",
          "type": "address"
        }
      ],
      "name": "balanceOf",
      "outputs": [
        {
          "internalType": "uint256",
          "name": "",
          "type": "uint256"
        }
      ],
      "stateMutability": "view",
      "type": "function"
    },
    {
      "inputs": [
        {
          "internalType": "uint256",
          "name": "tokenId",
          "type": "uint256"
        }
      ],
      "name": "burn",
      "outputs": [],
      "stateMutability": "nonpayable",
      "type": "function"
    },
    {
      "inputs": [
        {
          "internalType": "uint256",
          "name": "tokenId",
          "type": "uint256"
        }
      ],
      "name": "getApproved",
      "outputs": [
        {
          "internalType": "address",
          "name": "",
          "type": "address"
        }
      ],
      "stateMutability": "view",
      "type": "function"
    },
    {
      "inputs": [
        {
          "internalType": "bytes32",
          "name": "role",
          "type": "bytes32"
        }
      ],
      "name": "getRoleAdmin",
      "outputs": [
        {
          "internalType": "bytes32",
          "name": "",
          "type": "bytes32"
        }
      ],
      "stateMutability": "view",
      "type": "function"
    },
    {
      "inputs": [
        {
          "internalType": "bytes32",
          "name": "role",
          "type": "bytes32"
        },
        {
          "internalType": "address",
          "name": "account",
          "type": "address"
        }
      ],
      "name": "grantRole",
      "outputs": [],
      "stateMutability": "nonpayable",
      "type": "function"
    },
    {
      "inputs": [
        {
          "internalType": "bytes32",
          "name": "role",
          "type": "bytes32"
        },
        {
          "internalType": "address",
          "name": "account",
          "type": "address"
        }
      ],
      "name": "hasRole",
      "outputs": [
        {
          "internalType": "bool",
          "name": "",
          "type": "bool"
        }
      ],
      "stateMutability": "view",
      "type": "function"
    },
    {
      "inputs": [
        {
          "internalType": "address",
          "name": "owner",
          "type": "address"
        },
        {
          "internalType": "address",
          "name": "operator",
          "type": "address"
        }
      ],
      "name": "isApprovedForAll",
      "outputs": [
        {
          "internalType": "bool",
          "name": "",
          "type": "bool"
        }
      ],
      "stateMutability": "view",
      "type": "function"
    },
    {
      "inputs": [],
      "name": "mintMemberCard",
      "outputs": [],
      "stateMutability": "nonpayable",
      "type": "function"
    },
    {
      "inputs": [],
      "name": "name",
      "outputs": [
        {
          "internalType": "string",
          "name": "",
          "type": "string"
        }
      ],
      "stateMutability": "view",
      "type": "function"
    },
    {
      "inputs": [
        {
          "internalType": "uint256",
          "name": "tokenId",
          "type": "uint256"
        }
      ],
      "name": "ownerOf",
      "outputs": [
        {
          "internalType": "address",
          "name": "",
          "type": "address"
        }
      ],
      "stateMutability": "view",
      "type": "function"
    },
    {
      "inputs": [
        {
          "internalType": "bytes32",
          "name": "role",
          "type": "bytes32"
        },
        {
          "internalType": "address",
          "name": "account",
          "type": "address"
        }
      ],
      "name": "renounceRole",
      "outputs": [],
      "stateMutability": "nonpayable",
      "type": "function"
    },
    {
      "inputs": [
        {
          "internalType": "bytes32",
          "name": "role",
          "type": "bytes32"
        },
        {
          "internalType": "address",
          "name": "account",
          "type": "address"
        }
      ],
      "name": "revokeRole",
      "outputs": [],
      "stateMutability": "nonpayable",
      "type": "function"
    },
    {
      "inputs": [
        {
          "internalType": "address",
          "name": "from",
          "type": "address"
        },
        {
          "internalType": "address",
          "name": "to",
          "type": "address"
        },
        {
          "internalType": "uint256",
          "name": "tokenId",
          "type": "uint256"
        }
      ],
      "name": "safeTransferFrom",
      "outputs": [],
      "stateMutability": "nonpayable",
      "type": "function"
    },
    {
      "inputs": [
        {
          "internalType": "address",
          "name": "from",
          "type": "address"
        },
        {
          "internalType": "address",
          "name": "to",
          "type": "address"
        },
        {
          "internalType": "uint256",
          "name": "tokenId",
          "type": "uint256"
        },
        {
          "internalType": "bytes",
          "name": "data",
          "type": "bytes"
        }
      ],
      "name": "safeTransferFrom",
      "outputs": [],
      "stateMutability": "nonpayable",
      "type": "function"
    },
    {
      "inputs": [
        {
          "internalType": "address",
          "name": "operator",
          "type": "address"
        },
        {
          "internalType": "bool",
          "name": "approved",
          "type": "bool"
        }
      ],
      "name": "setApprovalForAll",
      "outputs": [],
      "stateMutability": "nonpayable",
      "type": "function"
    },
    {
      "inputs": [
        {
          "internalType": "bytes4",
          "name": "interfaceId",
          "type": "bytes4"
        }
      ],
      "name": "supportsInterface",
      "outputs": [
        {
          "internalType": "bool",
          "name": "",
          "type": "bool"
        }
      ],
      "stateMutability": "view",
      "type": "function"
    },
    {
      "inputs": [],
      "name": "symbol",
      "outputs": [
        {
          "internalType": "string",
          "name": "",
          "type": "string"
        }
      ],
      "stateMutability": "view",
      "type": "function"
    },
    {
      "inputs": [
        {
          "internalType": "uint256",
          "name": "index",
          "type": "uint256"
        }
      ],
      "name": "tokenByIndex",
      "outputs": [
        {
          "internalType": "uint256",
          "name": "",
          "type": "uint256"
        }
      ],
      "stateMutability": "view",
      "type": "function"
    },
    {
      "inputs": [
        {
          "internalType": "address",
          "name": "owner",
          "type": "address"
        },
        {
          "internalType": "uint256",
          "name": "index",
          "type": "uint256"
        }
      ],
      "name": "tokenOfOwnerByIndex",
      "outputs": [
        {
          "internalType": "uint256",
          "name": "",
          "type": "uint256"
        }
      ],
      "stateMutability": "view",
      "type": "function"
    },
    {
      "inputs": [
        {
          "internalType": "uint256",
          "name": "tokenId",
          "type": "uint256"
        }
      ],
      "name": "tokenURI",
      "outputs": [
        {
          "internalType": "string",
          "name": "",
          "type": "string"
        }
      ],
      "stateMutability": "view",
      "type": "function"
    },
    {
      "inputs": [],
      "name": "totalSupply",
      "outputs": [
        {
          "internalType": "uint256",
          "name": "",
          "type": "uint256"
        }
      ],
      "stateMutability": "view",
      "type": "function"
    },
    {
      "inputs": [
        {
          "internalType": "address",
          "name": "from",
          "type": "address"
        },
        {
          "internalType": "address",
          "name": "to",
          "type": "address"
        },
        {
          "internalType": "uint256",
          "name": "tokenId",
          "type": "uint256"
        }
      ],
      "name": "transferFrom",
      "outputs": [],
      "stateMutability": "nonpayable",
      "type": "function"
    }
  ],
  "bytecode": "0x60806040523480156200001157600080fd5b5060405162003df338038062003df38339818101604052810190620000379190620002b2565b6040518060400160405280600a81526020017f4d656d62657243617264000000000000000000000000000000000000000000008152506040518060400160405280600481526020017f53575353000000000000000000000000000000000000000000000000000000008152508160019081620000b491906200055e565b508060029081620000c691906200055e565b505050620000de6000801b82620000e560201b60201c565b5062000645565b620000f78282620001d660201b60201c565b620001d257600160008084815260200190815260200160002060000160008373ffffffffffffffffffffffffffffffffffffffff1673ffffffffffffffffffffffffffffffffffffffff16815260200190815260200160002060006101000a81548160ff021916908315150217905550620001776200024060201b60201c565b73ffffffffffffffffffffffffffffffffffffffff168173ffffffffffffffffffffffffffffffffffffffff16837f2f8788117e7eff1d82e926ec794901d17c78024a50270940304540a733656f0d60405160405180910390a45b5050565b600080600084815260200190815260200160002060000160008373ffffffffffffffffffffffffffffffffffffffff1673ffffffffffffffffffffffffffffffffffffffff16815260200190815260200160002060009054906101000a900460ff16905092915050565b600033905090565b600080fd5b600073ffffffffffffffffffffffffffffffffffffffff82169050919050565b60006200027a826200024d565b9050919050565b6200028c816200026d565b81146200029857600080fd5b50565b600081519050620002ac8162000281565b92915050565b600060208284031215620002cb57620002ca62000248565b5b6000620002db848285016200029b565b91505092915050565b600081519050919050565b7f4e487b7100000000000000000000000000000000000000000000000000000000600052604160045260246000fd5b7f4e487b7100000000000000000000000000000000000000000000000000000000600052602260045260246000fd5b600060028204905060018216806200036657607f821691505b6020821081036200037c576200037b6200031e565b5b50919050565b60008190508160005260206000209050919050565b60006020601f8301049050919050565b600082821b905092915050565b600060088302620003e67fffffffffffffffffffffffffffffffffffffffffffffffffffffffffffffffff82620003a7565b620003f28683620003a7565b95508019841693508086168417925050509392505050565b6000819050919050565b6000819050919050565b60006200043f6200043962000433846200040a565b62000414565b6200040a565b9050919050565b6000819050919050565b6200045b836200041e565b620004736200046a8262000446565b848454620003b4565b825550505050565b600090565b6200048a6200047b565b6200049781848462000450565b505050565b5b81811015620004bf57620004b360008262000480565b6001810190506200049d565b5050565b601f8211156200050e57620004d88162000382565b620004e38462000397565b81016020851015620004f3578190505b6200050b620005028562000397565b8301826200049c565b50505b505050565b600082821c905092915050565b6000620005336000198460080262000513565b1980831691505092915050565b60006200054e838362000520565b9150826002028217905092915050565b6200056982620002e4565b67ffffffffffffffff811115620005855762000584620002ef565b5b6200059182546200034d565b6200059e828285620004c3565b600060209050601f831160018114620005d65760008415620005c1578287015190505b620005cd858262000540565b8655506200063d565b601f198416620005e68662000382565b60005b828110156200061057848901518255600182019150602085019450602081019050620005e9565b868310156200063057848901516200062c601f89168262000520565b8355505b6001600288020188555050505b505050505050565b61379e80620006556000396000f3fe608060405234801561001057600080fd5b50600436106101735760003560e01c806342966c68116100de578063a217fddf11610097578063c87b56dd11610071578063c87b56dd1461045a578063d547741f1461048a578063ded8bdcf146104a6578063e985e9c5146104c457610173565b8063a217fddf14610404578063a22cb46514610422578063b88d4fde1461043e57610173565b806342966c681461030a5780634f6ccce7146103265780636352211e1461035657806370a082311461038657806391d14854146103b657806395d89b41146103e657610173565b8063248a9ca311610130578063248a9ca31461024c5780632f2ff15d1461027c5780632f745c591461029857806331fa4152146102c857806336568abe146102d257806342842e0e146102ee57610173565b806301ffc9a71461017857806306fdde03146101a8578063081812fc146101c6578063095ea7b3146101f657806318160ddd1461021257806323b872dd14610230575b600080fd5b610192600480360381019061018d91906121e8565b6104f4565b60405161019f9190612230565b60405180910390f35b6101b0610506565b6040516101bd91906122db565b60405180910390f35b6101e060048036038101906101db9190612333565b610598565b6040516101ed91906123a1565b60405180910390f35b610210600480360381019061020b91906123e8565b6105de565b005b61021a6106f5565b6040516102279190612437565b60405180910390f35b61024a60048036038101906102459190612452565b610702565b005b610266600480360381019061026191906124db565b610762565b6040516102739190612517565b60405180910390f35b61029660048036038101906102919190612532565b610781565b005b6102b260048036038101906102ad91906123e8565b6107a2565b6040516102bf9190612437565b60405180910390f35b6102d0610847565b005b6102ec60048036038101906102e79190612532565b610943565b005b61030860048036038101906103039190612452565b6109c6565b005b610324600480360381019061031f9190612333565b6109e6565b005b610340600480360381019061033b9190612333565b610a42565b60405161034d9190612437565b60405180910390f35b610370600480360381019061036b9190612333565b610ab3565b60405161037d91906123a1565b60405180910390f35b6103a0600480360381019061039b9190612572565b610b64565b6040516103ad9190612437565b60405180910390f35b6103d060048036038101906103cb9190612532565b610c1b565b6040516103dd9190612230565b60405180910390f35b6103ee610c85565b6040516103fb91906122db565b60405180910390f35b61040c610d17565b6040516104199190612517565b60405180910390f35b61043c600480360381019061043791906125cb565b610d1e565b005b61045860048036038101906104539190612740565b610d34565b005b610474600480360381019061046f9190612333565b610d96565b60405161048191906122db565b60405180910390f35b6104a4600480360381019061049f9190612532565b610db8565b005b6104ae610dd9565b6040516104bb91906123a1565b60405180910390f35b6104de60048036038101906104d991906127c3565b610dff565b6040516104eb9190612230565b60405180910390f35b60006104ff82610e93565b9050919050565b60606001805461051590612832565b80601f016020809104026020016040519081016040528092919081815260200182805461054190612832565b801561058e5780601f106105635761010080835404028352916020019161058e565b820191906000526020600020905b81548152906001019060200180831161057157829003601f168201915b5050505050905090565b60006105a382610f0d565b6005600083815260200190815260200160002060009054906101000a900473ffffffffffffffffffffffffffffffffffffffff169050919050565b60006105e982610ab3565b90508073ffffffffffffffffffffffffffffffffffffffff168373ffffffffffffffffffffffffffffffffffffffff1603610659576040517f08c379a0000000000000000000000000000000000000000000000000000000008152600401610650906128d5565b60405180910390fd5b8073ffffffffffffffffffffffffffffffffffffffff16610678610f58565b73ffffffffffffffffffffffffffffffffffffffff1614806106a757506106a6816106a1610f58565b610dff565b5b6106e6576040517f08c379a00000000000000000000000000000000000000000000000000000000081526004016106dd90612967565b60405180910390fd5b6106f08383610f60565b505050565b6000600a80549050905090565b61071361070d610f58565b82611019565b610752576040517f08c379a0000000000000000000000000000000000000000000000000000000008152600401610749906129f9565b60405180910390fd5b61075d8383836110ae565b505050565b6000806000838152602001908152602001600020600101549050919050565b61078a82610762565b61079381611314565b61079d8383611328565b505050565b60006107ad83610b64565b82106107ee576040517f08c379a00000000000000000000000000000000000000000000000000000000081526004016107e590612a8b565b60405180910390fd5b600860008473ffffffffffffffffffffffffffffffffffffffff1673ffffffffffffffffffffffffffffffffffffffff168152602001908152602001600020600083815260200190815260200160002054905092915050565b6108546000801b33610c1b565b610893576040517f08c379a000000000000000000000000000000000000000000000000000000000815260040161088a90612af7565b60405180910390fd5b600061089f600f611408565b90506108ab3382611416565b6108bd816108b883610d96565b611434565b6000600c60003373ffffffffffffffffffffffffffffffffffffffff1673ffffffffffffffffffffffffffffffffffffffff168152602001908152602001600020600083815260200190815260200160002060006101000a81548160ff0219169083600381111561093157610930612b17565b5b0217905550610940600f6114a1565b50565b61094b610f58565b73ffffffffffffffffffffffffffffffffffffffff168173ffffffffffffffffffffffffffffffffffffffff16146109b8576040517f08c379a00000000000000000000000000000000000000000000000000000000081526004016109af90612bb8565b60405180910390fd5b6109c282826114b7565b5050565b6109e183838360405180602001604052806000815250610d34565b505050565b6109f76109f1610f58565b82611019565b610a36576040517f08c379a0000000000000000000000000000000000000000000000000000000008152600401610a2d906129f9565b60405180910390fd5b610a3f81611598565b50565b6000610a4c6106f5565b8210610a8d576040517f08c379a0000000000000000000000000000000000000000000000000000000008152600401610a8490612c4a565b60405180910390fd5b600a8281548110610aa157610aa0612c6a565b5b90600052602060002001549050919050565b6000806003600084815260200190815260200160002060009054906101000a900473ffffffffffffffffffffffffffffffffffffffff169050600073ffffffffffffffffffffffffffffffffffffffff168173ffffffffffffffffffffffffffffffffffffffff1603610b5b576040517f08c379a0000000000000000000000000000000000000000000000000000000008152600401610b5290612ce5565b60405180910390fd5b80915050919050565b60008073ffffffffffffffffffffffffffffffffffffffff168273ffffffffffffffffffffffffffffffffffffffff1603610bd4576040517f08c379a0000000000000000000000000000000000000000000000000000000008152600401610bcb90612d77565b60405180910390fd5b600460008373ffffffffffffffffffffffffffffffffffffffff1673ffffffffffffffffffffffffffffffffffffffff168152602001908152602001600020549050919050565b600080600084815260200190815260200160002060000160008373ffffffffffffffffffffffffffffffffffffffff1673ffffffffffffffffffffffffffffffffffffffff16815260200190815260200160002060009054906101000a900460ff16905092915050565b606060028054610c9490612832565b80601f0160208091040260200160405190810160405280929190818152602001828054610cc090612832565b8015610d0d5780601f10610ce257610100808354040283529160200191610d0d565b820191906000526020600020905b815481529060010190602001808311610cf057829003601f168201915b5050505050905090565b6000801b81565b610d30610d29610f58565b83836115a4565b5050565b610d45610d3f610f58565b83611019565b610d84576040517f08c379a0000000000000000000000000000000000000000000000000000000008152600401610d7b906129f9565b60405180910390fd5b610d9084848484611710565b50505050565b6060604051806080016040528060508152602001613719605091399050919050565b610dc182610762565b610dca81611314565b610dd483836114b7565b505050565b601060009054906101000a900473ffffffffffffffffffffffffffffffffffffffff1681565b6000600660008473ffffffffffffffffffffffffffffffffffffffff1673ffffffffffffffffffffffffffffffffffffffff16815260200190815260200160002060008373ffffffffffffffffffffffffffffffffffffffff1673ffffffffffffffffffffffffffffffffffffffff16815260200190815260200160002060009054906101000a900460ff16905092915050565b60007f780e9d63000000000000000000000000000000000000000000000000000000007bffffffffffffffffffffffffffffffffffffffffffffffffffffffff1916827bffffffffffffffffffffffffffffffffffffffffffffffffffffffff19161480610f065750610f058261176c565b5b9050919050565b610f168161184e565b610f55576040517f08c379a0000000000000000000000000000000000000000000000000000000008152600401610f4c90612ce5565b60405180910390fd5b50565b600033905090565b816005600083815260200190815260200160002060006101000a81548173ffffffffffffffffffffffffffffffffffffffff021916908373ffffffffffffffffffffffffffffffffffffffff160217905550808273ffffffffffffffffffffffffffffffffffffffff16610fd383610ab3565b73ffffffffffffffffffffffffffffffffffffffff167f8c5be1e5ebec7d5bd14f71427d1e84f3dd0314c0f7b2291e5b200ac8c7c3b92560405160405180910390a45050565b60008061102583610ab3565b90508073ffffffffffffffffffffffffffffffffffffffff168473ffffffffffffffffffffffffffffffffffffffff16148061106757506110668185610dff565b5b806110a557508373ffffffffffffffffffffffffffffffffffffffff1661108d84610598565b73ffffffffffffffffffffffffffffffffffffffff16145b91505092915050565b8273ffffffffffffffffffffffffffffffffffffffff166110ce82610ab3565b73ffffffffffffffffffffffffffffffffffffffff1614611124576040517f08c379a000000000000000000000000000000000000000000000000000000000815260040161111b90612e09565b60405180910390fd5b600073ffffffffffffffffffffffffffffffffffffffff168273ffffffffffffffffffffffffffffffffffffffff1603611193576040517f08c379a000000000000000000000000000000000000000000000000000000000815260040161118a90612e9b565b60405180910390fd5b61119e8383836118ba565b6111a9600082610f60565b6001600460008573ffffffffffffffffffffffffffffffffffffffff1673ffffffffffffffffffffffffffffffffffffffff16815260200190815260200160002060008282546111f99190612eea565b925050819055506001600460008473ffffffffffffffffffffffffffffffffffffffff1673ffffffffffffffffffffffffffffffffffffffff16815260200190815260200160002060008282546112509190612f1e565b92505081905550816003600083815260200190815260200160002060006101000a81548173ffffffffffffffffffffffffffffffffffffffff021916908373ffffffffffffffffffffffffffffffffffffffff160217905550808273ffffffffffffffffffffffffffffffffffffffff168473ffffffffffffffffffffffffffffffffffffffff167fddf252ad1be2c89b69c2b068fc378daa952ba7f163c4a11628f55a4df523b3ef60405160405180910390a461130f8383836118bf565b505050565b61132581611320610f58565b6118c4565b50565b6113328282610c1b565b61140457600160008084815260200190815260200160002060000160008373ffffffffffffffffffffffffffffffffffffffff1673ffffffffffffffffffffffffffffffffffffffff16815260200190815260200160002060006101000a81548160ff0219169083151502179055506113a9610f58565b73ffffffffffffffffffffffffffffffffffffffff168173ffffffffffffffffffffffffffffffffffffffff16837f2f8788117e7eff1d82e926ec794901d17c78024a50270940304540a733656f0d60405160405180910390a45b5050565b600081600001549050919050565b611430828260405180602001604052806000815250611961565b5050565b61143d8261184e565b61147c576040517f08c379a000000000000000000000000000000000000000000000000000000000815260040161147390612fc4565b60405180910390fd5b8060076000848152602001908152602001600020908161149c9190613190565b505050565b6001816000016000828254019250508190555050565b6114c18282610c1b565b1561159457600080600084815260200190815260200160002060000160008373ffffffffffffffffffffffffffffffffffffffff1673ffffffffffffffffffffffffffffffffffffffff16815260200190815260200160002060006101000a81548160ff021916908315150217905550611539610f58565b73ffffffffffffffffffffffffffffffffffffffff168173ffffffffffffffffffffffffffffffffffffffff16837ff6391f5c32d9c69d2a47ea670b442974b53935d1edc7fd64eb21e047a839171b60405160405180910390a45b5050565b6115a1816119bc565b50565b8173ffffffffffffffffffffffffffffffffffffffff168373ffffffffffffffffffffffffffffffffffffffff1603611612576040517f08c379a0000000000000000000000000000000000000000000000000000000008152600401611609906132ae565b60405180910390fd5b80600660008573ffffffffffffffffffffffffffffffffffffffff1673ffffffffffffffffffffffffffffffffffffffff16815260200190815260200160002060008473ffffffffffffffffffffffffffffffffffffffff1673ffffffffffffffffffffffffffffffffffffffff16815260200190815260200160002060006101000a81548160ff0219169083151502179055508173ffffffffffffffffffffffffffffffffffffffff168373ffffffffffffffffffffffffffffffffffffffff167f17307eab39ab6107e8899845ad3d59bd9653f200f220920489ca2b5937696c31836040516117039190612230565b60405180910390a3505050565b61171b8484846110ae565b61172784848484611ad9565b611766576040517f08c379a000000000000000000000000000000000000000000000000000000000815260040161175d90613340565b60405180910390fd5b50505050565b60007f80ac58cd000000000000000000000000000000000000000000000000000000007bffffffffffffffffffffffffffffffffffffffffffffffffffffffff1916827bffffffffffffffffffffffffffffffffffffffffffffffffffffffff1916148061183757507f5b5e139f000000000000000000000000000000000000000000000000000000007bffffffffffffffffffffffffffffffffffffffffffffffffffffffff1916827bffffffffffffffffffffffffffffffffffffffffffffffffffffffff1916145b80611847575061184682611c60565b5b9050919050565b60008073ffffffffffffffffffffffffffffffffffffffff166003600084815260200190815260200160002060009054906101000a900473ffffffffffffffffffffffffffffffffffffffff1673ffffffffffffffffffffffffffffffffffffffff1614159050919050565b505050565b505050565b6118ce8282610c1b565b61195d576118f38173ffffffffffffffffffffffffffffffffffffffff166014611cda565b6119018360001c6020611cda565b604051602001611912929190613434565b6040516020818303038152906040526040517f08c379a000000000000000000000000000000000000000000000000000000000815260040161195491906122db565b60405180910390fd5b5050565b61196b8383611f16565b6119786000848484611ad9565b6119b7576040517f08c379a00000000000000000000000000000000000000000000000000000000081526004016119ae90613340565b60405180910390fd5b505050565b60006119c782610ab3565b90506119d5816000846118ba565b6119e0600083610f60565b6001600460008373ffffffffffffffffffffffffffffffffffffffff1673ffffffffffffffffffffffffffffffffffffffff1681526020019081526020016000206000828254611a309190612eea565b925050819055506003600083815260200190815260200160002060006101000a81549073ffffffffffffffffffffffffffffffffffffffff021916905581600073ffffffffffffffffffffffffffffffffffffffff168273ffffffffffffffffffffffffffffffffffffffff167fddf252ad1be2c89b69c2b068fc378daa952ba7f163c4a11628f55a4df523b3ef60405160405180910390a4611ad5816000846118bf565b5050565b6000611afa8473ffffffffffffffffffffffffffffffffffffffff166120ef565b15611c53578373ffffffffffffffffffffffffffffffffffffffff1663150b7a02611b23610f58565b8786866040518563ffffffff1660e01b8152600401611b4594939291906134c3565b6020604051808303816000875af1925050508015611b8157506040513d601f19601f82011682018060405250810190611b7e9190613524565b60015b611c03573d8060008114611bb1576040519150601f19603f3d011682016040523d82523d6000602084013e611bb6565b606091505b506000815103611bfb576040517f08c379a0000000000000000000000000000000000000000000000000000000008152600401611bf290613340565b60405180910390fd5b805181602001fd5b63150b7a0260e01b7bffffffffffffffffffffffffffffffffffffffffffffffffffffffff1916817bffffffffffffffffffffffffffffffffffffffffffffffffffffffff191614915050611c58565b600190505b949350505050565b60007f7965db0b000000000000000000000000000000000000000000000000000000007bffffffffffffffffffffffffffffffffffffffffffffffffffffffff1916827bffffffffffffffffffffffffffffffffffffffffffffffffffffffff19161480611cd35750611cd282612112565b5b9050919050565b606060006002836002611ced9190613551565b611cf79190612f1e565b67ffffffffffffffff811115611d1057611d0f612615565b5b6040519080825280601f01601f191660200182016040528015611d425781602001600182028036833780820191505090505b5090507f300000000000000000000000000000000000000000000000000000000000000081600081518110611d7a57611d79612c6a565b5b60200101907effffffffffffffffffffffffffffffffffffffffffffffffffffffffffffff1916908160001a9053507f780000000000000000000000000000000000000000000000000000000000000081600181518110611dde57611ddd612c6a565b5b60200101907effffffffffffffffffffffffffffffffffffffffffffffffffffffffffffff1916908160001a90535060006001846002611e1e9190613551565b611e289190612f1e565b90505b6001811115611ec8577f3031323334353637383961626364656600000000000000000000000000000000600f861660108110611e6a57611e69612c6a565b5b1a60f81b828281518110611e8157611e80612c6a565b5b60200101907effffffffffffffffffffffffffffffffffffffffffffffffffffffffffffff1916908160001a905350600485901c945080611ec1906135ab565b9050611e2b565b5060008414611f0c576040517f08c379a0000000000000000000000000000000000000000000000000000000008152600401611f0390613620565b60405180910390fd5b8091505092915050565b600073ffffffffffffffffffffffffffffffffffffffff168273ffffffffffffffffffffffffffffffffffffffff1603611f85576040517f08c379a0000000000000000000000000000000000000000000000000000000008152600401611f7c9061368c565b60405180910390fd5b611f8e8161184e565b15611fce576040517f08c379a0000000000000000000000000000000000000000000000000000000008152600401611fc5906136f8565b60405180910390fd5b611fda600083836118ba565b6001600460008473ffffffffffffffffffffffffffffffffffffffff1673ffffffffffffffffffffffffffffffffffffffff168152602001908152602001600020600082825461202a9190612f1e565b92505081905550816003600083815260200190815260200160002060006101000a81548173ffffffffffffffffffffffffffffffffffffffff021916908373ffffffffffffffffffffffffffffffffffffffff160217905550808273ffffffffffffffffffffffffffffffffffffffff16600073ffffffffffffffffffffffffffffffffffffffff167fddf252ad1be2c89b69c2b068fc378daa952ba7f163c4a11628f55a4df523b3ef60405160405180910390a46120eb600083836118bf565b5050565b6000808273ffffffffffffffffffffffffffffffffffffffff163b119050919050565b60007f01ffc9a7000000000000000000000000000000000000000000000000000000007bffffffffffffffffffffffffffffffffffffffffffffffffffffffff1916827bffffffffffffffffffffffffffffffffffffffffffffffffffffffff1916149050919050565b6000604051905090565b600080fd5b600080fd5b60007fffffffff0000000000000000000000000000000000000000000000000000000082169050919050565b6121c581612190565b81146121d057600080fd5b50565b6000813590506121e2816121bc565b92915050565b6000602082840312156121fe576121fd612186565b5b600061220c848285016121d3565b91505092915050565b60008115159050919050565b61222a81612215565b82525050565b60006020820190506122456000830184612221565b92915050565b600081519050919050565b600082825260208201905092915050565b60005b8381101561228557808201518184015260208101905061226a565b60008484015250505050565b6000601f19601f8301169050919050565b60006122ad8261224b565b6122b78185612256565b93506122c7818560208601612267565b6122d081612291565b840191505092915050565b600060208201905081810360008301526122f581846122a2565b905092915050565b6000819050919050565b612310816122fd565b811461231b57600080fd5b50565b60008135905061232d81612307565b92915050565b60006020828403121561234957612348612186565b5b60006123578482850161231e565b91505092915050565b600073ffffffffffffffffffffffffffffffffffffffff82169050919050565b600061238b82612360565b9050919050565b61239b81612380565b82525050565b60006020820190506123b66000830184612392565b92915050565b6123c581612380565b81146123d057600080fd5b50565b6000813590506123e2816123bc565b92915050565b600080604083850312156123ff576123fe612186565b5b600061240d858286016123d3565b925050602061241e8582860161231e565b9150509250929050565b612431816122fd565b82525050565b600060208201905061244c6000830184612428565b92915050565b60008060006060848603121561246b5761246a612186565b5b6000612479868287016123d3565b935050602061248a868287016123d3565b925050604061249b8682870161231e565b9150509250925092565b6000819050919050565b6124b8816124a5565b81146124c357600080fd5b50565b6000813590506124d5816124af565b92915050565b6000602082840312156124f1576124f0612186565b5b60006124ff848285016124c6565b91505092915050565b612511816124a5565b82525050565b600060208201905061252c6000830184612508565b92915050565b6000806040838503121561254957612548612186565b5b6000612557858286016124c6565b9250506020612568858286016123d3565b9150509250929050565b60006020828403121561258857612587612186565b5b6000612596848285016123d3565b91505092915050565b6125a881612215565b81146125b357600080fd5b50565b6000813590506125c58161259f565b92915050565b600080604083850312156125e2576125e1612186565b5b60006125f0858286016123d3565b9250506020612601858286016125b6565b9150509250929050565b600080fd5b600080fd5b7f4e487b7100000000000000000000000000000000000000000000000000000000600052604160045260246000fd5b61264d82612291565b810181811067ffffffffffffffff8211171561266c5761266b612615565b5b80604052505050565b600061267f61217c565b905061268b8282612644565b919050565b600067ffffffffffffffff8211156126ab576126aa612615565b5b6126b482612291565b9050602081019050919050565b82818337600083830152505050565b60006126e36126de84612690565b612675565b9050828152602081018484840111156126ff576126fe612610565b5b61270a8482856126c1565b509392505050565b600082601f8301126127275761272661260b565b5b81356127378482602086016126d0565b91505092915050565b6000806000806080858703121561275a57612759612186565b5b6000612768878288016123d3565b9450506020612779878288016123d3565b935050604061278a8782880161231e565b925050606085013567ffffffffffffffff8111156127ab576127aa61218b565b5b6127b787828801612712565b91505092959194509250565b600080604083850312156127da576127d9612186565b5b60006127e8858286016123d3565b92505060206127f9858286016123d3565b9150509250929050565b7f4e487b7100000000000000000000000000000000000000000000000000000000600052602260045260246000fd5b6000600282049050600182168061284a57607f821691505b60208210810361285d5761285c612803565b5b50919050565b7f4552433732313a20617070726f76616c20746f2063757272656e74206f776e6560008201527f7200000000000000000000000000000000000000000000000000000000000000602082015250565b60006128bf602183612256565b91506128ca82612863565b604082019050919050565b600060208201905081810360008301526128ee816128b2565b9050919050565b7f4552433732313a20617070726f76652063616c6c6572206973206e6f7420746f60008201527f6b656e206f776e6572206e6f7220617070726f76656420666f7220616c6c0000602082015250565b6000612951603e83612256565b915061295c826128f5565b604082019050919050565b6000602082019050818103600083015261298081612944565b9050919050565b7f4552433732313a2063616c6c6572206973206e6f7420746f6b656e206f776e6560008201527f72206e6f7220617070726f766564000000000000000000000000000000000000602082015250565b60006129e3602e83612256565b91506129ee82612987565b604082019050919050565b60006020820190508181036000830152612a12816129d6565b9050919050565b7f455243373231456e756d657261626c653a206f776e657220696e646578206f7560008201527f74206f6620626f756e6473000000000000000000000000000000000000000000602082015250565b6000612a75602b83612256565b9150612a8082612a19565b604082019050919050565b60006020820190508181036000830152612aa481612a68565b9050919050565b7f4e4f545f44495350415443484552000000000000000000000000000000000000600082015250565b6000612ae1600e83612256565b9150612aec82612aab565b602082019050919050565b60006020820190508181036000830152612b1081612ad4565b9050919050565b7f4e487b7100000000000000000000000000000000000000000000000000000000600052602160045260246000fd5b7f416363657373436f6e74726f6c3a2063616e206f6e6c792072656e6f756e636560008201527f20726f6c657320666f722073656c660000000000000000000000000000000000602082015250565b6000612ba2602f83612256565b9150612bad82612b46565b604082019050919050565b60006020820190508181036000830152612bd181612b95565b9050919050565b7f455243373231456e756d657261626c653a20676c6f62616c20696e646578206f60008201527f7574206f6620626f756e64730000000000000000000000000000000000000000602082015250565b6000612c34602c83612256565b9150612c3f82612bd8565b604082019050919050565b60006020820190508181036000830152612c6381612c27565b9050919050565b7f4e487b7100000000000000000000000000000000000000000000000000000000600052603260045260246000fd5b7f4552433732313a20696e76616c696420746f6b656e2049440000000000000000600082015250565b6000612ccf601883612256565b9150612cda82612c99565b602082019050919050565b60006020820190508181036000830152612cfe81612cc2565b9050919050565b7f4552433732313a2061646472657373207a65726f206973206e6f74206120766160008201527f6c6964206f776e65720000000000000000000000000000000000000000000000602082015250565b6000612d61602983612256565b9150612d6c82612d05565b604082019050919050565b60006020820190508181036000830152612d9081612d54565b9050919050565b7f4552433732313a207472616e736665722066726f6d20696e636f72726563742060008201527f6f776e6572000000000000000000000000000000000000000000000000000000602082015250565b6000612df3602583612256565b9150612dfe82612d97565b604082019050919050565b60006020820190508181036000830152612e2281612de6565b9050919050565b7f4552433732313a207472616e7366657220746f20746865207a65726f2061646460008201527f7265737300000000000000000000000000000000000000000000000000000000602082015250565b6000612e85602483612256565b9150612e9082612e29565b604082019050919050565b60006020820190508181036000830152612eb481612e78565b9050919050565b7f4e487b7100000000000000000000000000000000000000000000000000000000600052601160045260246000fd5b6000612ef5826122fd565b9150612f00836122fd565b9250828203905081811115612f1857612f17612ebb565b5b92915050565b6000612f29826122fd565b9150612f34836122fd565b9250828201905080821115612f4c57612f4b612ebb565b5b92915050565b7f45524337323155524953746f726167653a2055524920736574206f66206e6f6e60008201527f6578697374656e7420746f6b656e000000000000000000000000000000000000602082015250565b6000612fae602e83612256565b9150612fb982612f52565b604082019050919050565b60006020820190508181036000830152612fdd81612fa1565b9050919050565b60008190508160005260206000209050919050565b60006020601f8301049050919050565b600082821b905092915050565b6000600883026130467fffffffffffffffffffffffffffffffffffffffffffffffffffffffffffffffff82613009565b6130508683613009565b95508019841693508086168417925050509392505050565b6000819050919050565b600061308d613088613083846122fd565b613068565b6122fd565b9050919050565b6000819050919050565b6130a783613072565b6130bb6130b382613094565b848454613016565b825550505050565b600090565b6130d06130c3565b6130db81848461309e565b505050565b5b818110156130ff576130f46000826130c8565b6001810190506130e1565b5050565b601f8211156131445761311581612fe4565b61311e84612ff9565b8101602085101561312d578190505b61314161313985612ff9565b8301826130e0565b50505b505050565b600082821c905092915050565b600061316760001984600802613149565b1980831691505092915050565b60006131808383613156565b9150826002028217905092915050565b6131998261224b565b67ffffffffffffffff8111156131b2576131b1612615565b5b6131bc8254612832565b6131c7828285613103565b600060209050601f8311600181146131fa57600084156131e8578287015190505b6131f28582613174565b86555061325a565b601f19841661320886612fe4565b60005b828110156132305784890151825560018201915060208501945060208101905061320b565b8683101561324d5784890151613249601f891682613156565b8355505b6001600288020188555050505b505050505050565b7f4552433732313a20617070726f766520746f2063616c6c657200000000000000600082015250565b6000613298601983612256565b91506132a382613262565b602082019050919050565b600060208201905081810360008301526132c78161328b565b9050919050565b7f4552433732313a207472616e7366657220746f206e6f6e20455243373231526560008201527f63656976657220696d706c656d656e7465720000000000000000000000000000602082015250565b600061332a603283612256565b9150613335826132ce565b604082019050919050565b600060208201905081810360008301526133598161331d565b9050919050565b600081905092915050565b7f416363657373436f6e74726f6c3a206163636f756e7420000000000000000000600082015250565b60006133a1601783613360565b91506133ac8261336b565b601782019050919050565b60006133c28261224b565b6133cc8185613360565b93506133dc818560208601612267565b80840191505092915050565b7f206973206d697373696e6720726f6c6520000000000000000000000000000000600082015250565b600061341e601183613360565b9150613429826133e8565b601182019050919050565b600061343f82613394565b915061344b82856133b7565b915061345682613411565b915061346282846133b7565b91508190509392505050565b600081519050919050565b600082825260208201905092915050565b60006134958261346e565b61349f8185613479565b93506134af818560208601612267565b6134b881612291565b840191505092915050565b60006080820190506134d86000830187612392565b6134e56020830186612392565b6134f26040830185612428565b8181036060830152613504818461348a565b905095945050505050565b60008151905061351e816121bc565b92915050565b60006020828403121561353a57613539612186565b5b60006135488482850161350f565b91505092915050565b600061355c826122fd565b9150613567836122fd565b9250817fffffffffffffffffffffffffffffffffffffffffffffffffffffffffffffffff04831182151516156135a05761359f612ebb565b5b828202905092915050565b60006135b6826122fd565b9150600082036135c9576135c8612ebb565b5b600182039050919050565b7f537472696e67733a20686578206c656e67746820696e73756666696369656e74600082015250565b600061360a602083612256565b9150613615826135d4565b602082019050919050565b60006020820190508181036000830152613639816135fd565b9050919050565b7f4552433732313a206d696e7420746f20746865207a65726f2061646472657373600082015250565b6000613676602083612256565b915061368182613640565b602082019050919050565b600060208201905081810360008301526136a581613669565b9050919050565b7f4552433732313a20746f6b656e20616c7265616479206d696e74656400000000600082015250565b60006136e2601c83612256565b91506136ed826136ac565b602082019050919050565b60006020820190508181036000830152613711816136d5565b905091905056fe68747470733a2f2f676174657761792e70696e6174612e636c6f75642f697066732f516d526a39317a6a42614d6a554874784a6e4768333255764d365774643466584e587438637a41424c7575437345a264697066735822122080dac88d629288eb21d152da46529d4e9bd347c366504d1d63b784e7d9ce61b264736f6c63430008100033",
  "linkReferences": {},
  "deployedLinkReferences": {}
}