{
  "_format": "hh-sol-artifact-1",
  "contractName": "Dispatcher",
  "sourceName": "contracts/Dispatcher.sol",
  "abi": [
    {
      "inputs": [],
      "stateMutability": "nonpayable",
      "type": "constructor"
    },
    {
      "anonymous": false,
      "inputs": [
        {
          "indexed": true,
          "internalType": "address",
          "name": "previousOwner",
          "type": "address"
        },
        {
          "indexed": true,
          "internalType": "address",
          "name": "newOwner",
          "type": "address"
        }
      ],
      "name": "OwnershipTransferred",
      "type": "event"
    },
    {
      "inputs": [
        {
          "internalType": "address",
          "name": "",
          "type": "address"
        }
      ],
      "name": "addressIsMember",
      "outputs": [
        {
          "internalType": "bool",
          "name": "",
          "type": "bool"
        }
      ],
      "stateMutability": "view",
      "type": "function"
    },
    {
      "inputs": [
        {
          "internalType": "address",
          "name": "",
          "type": "address"
        }
      ],
      "name": "addressToMember",
      "outputs": [
        {
          "internalType": "address",
          "name": "member",
          "type": "address"
        },
        {
          "internalType": "uint256",
          "name": "tokenId",
          "type": "uint256"
        }
      ],
      "stateMutability": "view",
      "type": "function"
    },
    {
      "inputs": [
        {
          "internalType": "string",
          "name": "_title",
          "type": "string"
        },
        {
          "internalType": "uint256",
          "name": "_timestampOfEvent",
          "type": "uint256"
        },
        {
          "internalType": "uint16",
          "name": "_maxAttendees",
          "type": "uint16"
        },
        {
          "internalType": "bytes32[]",
          "name": "_hashes",
          "type": "bytes32[]"
        }
      ],
      "name": "createEvent",
      "outputs": [],
      "stateMutability": "nonpayable",
      "type": "function"
    },
    {
      "inputs": [],
      "name": "createMember",
      "outputs": [],
      "stateMutability": "nonpayable",
      "type": "function"
    },
    {
      "inputs": [
        {
          "internalType": "uint256",
          "name": "",
          "type": "uint256"
        },
        {
          "internalType": "address",
          "name": "",
          "type": "address"
        }
      ],
      "name": "eventIdToMemberToIfPresent",
      "outputs": [
        {
          "internalType": "bool",
          "name": "",
          "type": "bool"
        }
      ],
      "stateMutability": "view",
      "type": "function"
    },
    {
      "inputs": [
        {
          "internalType": "uint256",
          "name": "",
          "type": "uint256"
        }
      ],
      "name": "eventToAttendees",
      "outputs": [
        {
          "internalType": "address",
          "name": "member",
          "type": "address"
        },
        {
          "internalType": "uint256",
          "name": "tokenId",
          "type": "uint256"
        }
      ],
      "stateMutability": "view",
      "type": "function"
    },
    {
      "inputs": [
        {
          "internalType": "uint256",
          "name": "_eventID",
          "type": "uint256"
        },
        {
          "internalType": "address",
          "name": "_attendee",
          "type": "address"
        },
        {
          "internalType": "bytes32",
          "name": "_secret",
          "type": "bytes32"
        }
      ],
      "name": "iWasHere",
      "outputs": [],
      "stateMutability": "nonpayable",
      "type": "function"
    },
    {
      "inputs": [
        {
          "internalType": "uint256",
          "name": "",
          "type": "uint256"
        }
      ],
      "name": "idToEvents",
      "outputs": [
        {
          "internalType": "string",
          "name": "title",
          "type": "string"
        },
        {
          "internalType": "uint256",
          "name": "id",
          "type": "uint256"
        },
        {
          "internalType": "uint256",
          "name": "timestampOfEvent",
          "type": "uint256"
        },
        {
          "internalType": "address",
          "name": "owner",
          "type": "address"
        },
        {
          "internalType": "uint16",
          "name": "maxAttendees",
          "type": "uint16"
        }
      ],
      "stateMutability": "view",
      "type": "function"
    },
    {
      "inputs": [],
      "name": "owner",
      "outputs": [
        {
          "internalType": "address",
          "name": "",
          "type": "address"
        }
      ],
      "stateMutability": "view",
      "type": "function"
    },
    {
      "inputs": [],
      "name": "renounceOwnership",
      "outputs": [],
      "stateMutability": "nonpayable",
      "type": "function"
    },
    {
      "inputs": [
        {
          "internalType": "address",
          "name": "newOwner",
          "type": "address"
        }
      ],
      "name": "transferOwnership",
      "outputs": [],
      "stateMutability": "nonpayable",
      "type": "function"
    },
    {
      "inputs": [
        {
          "internalType": "uint256",
          "name": "_EventId",
          "type": "uint256"
        },
        {
          "internalType": "string",
          "name": "_newTitle",
          "type": "string"
        },
        {
          "internalType": "uint256",
          "name": "_timestampOFEvent",
          "type": "uint256"
        }
      ],
      "name": "updateEvent",
      "outputs": [],
      "stateMutability": "nonpayable",
      "type": "function"
    },
    {
      "inputs": [],
      "name": "updateMembercardFields",
      "outputs": [],
      "stateMutability": "nonpayable",
      "type": "function"
    }
  ],
  "bytecode": "0x608060405234801561001057600080fd5b5061002d61002261003260201b60201c565b61003a60201b60201c565b6100fe565b600033905090565b60008060009054906101000a900473ffffffffffffffffffffffffffffffffffffffff169050816000806101000a81548173ffffffffffffffffffffffffffffffffffffffff021916908373ffffffffffffffffffffffffffffffffffffffff1602179055508173ffffffffffffffffffffffffffffffffffffffff168173ffffffffffffffffffffffffffffffffffffffff167f8be0079c531659141344cd1fd0a4f28419497f9722a3daafe3b4186f6b6457e060405160405180910390a35050565b6119e68061010d6000396000f3fe608060405234801561001057600080fd5b50600436106100cf5760003560e01c8063715018a61161008c578063b8b7283c11610066578063b8b7283c1461022a578063d4f6ef9814610246578063d815e58d14610250578063f2fde38b1461025a576100cf565b8063715018a6146101d15780638da5cb5b146101db578063a4b08872146101f9576100cf565b8063256892b5146100d457806328da575b146100f05780634ed894091461012057806352dd7571146101515780636ac19ff01461016d5780637011a556146101a1575b600080fd5b6100ee60048036038101906100e99190610dce565b610276565b005b61010a60048036038101906101059190610e21565b61044e565b6040516101179190610e69565b60405180910390f35b61013a60048036038101906101359190610e84565b61046e565b604051610148929190610ecf565b60405180910390f35b61016b6004803603810190610166919061103e565b6104b2565b005b61018760048036038101906101829190610e84565b6107e0565b604051610198959493929190611149565b60405180910390f35b6101bb60048036038101906101b691906111a3565b6108cc565b6040516101c89190610e69565b60405180910390f35b6101d96108fb565b005b6101e361090f565b6040516101f091906111e3565b60405180910390f35b610213600480360381019061020e9190610e21565b610938565b604051610221929190610ecf565b60405180910390f35b610244600480360381019061023f91906112f2565b61097c565b005b61024e610ab5565b005b610258610ab7565b005b610274600480360381019061026f9190610e21565b610ab9565b005b60008060046000868152602001908152602001600020905060005b8160030160149054906101000a900461ffff1661ffff168110156103b45760008260040182815481106102c7576102c6611391565b5b90600052602060002001549050846040516020016102e591906113e1565b6040516020818303038152906040528051906020012081036103a0578260040180549050821061031457600080fd5b826004016001846004018054905061032c919061142b565b8154811061033d5761033c611391565b5b906000526020600020015483600401838154811061035e5761035d611391565b5b9060005260206000200181905550826004018054806103805761037f61145f565b5b6001900381819060005260206000200160009055905560019350506103b4565b5080806103ac9061148e565b915050610291565b50816103f5576040517f08c379a00000000000000000000000000000000000000000000000000000000081526004016103ec90611522565b60405180910390fd5b6000600660008673ffffffffffffffffffffffffffffffffffffffff1673ffffffffffffffffffffffffffffffffffffffff16815260200190815260200160002060009054906101000a900460ff169050505050505050565b60066020528060005260406000206000915054906101000a900460ff1681565b60076020528060005260406000206000915090508060000160009054906101000a900473ffffffffffffffffffffffffffffffffffffffff16908060010154905082565b6000600460008581526020019081526020016000206040518060c00160405290816000820180546104e290611571565b80601f016020809104026020016040519081016040528092919081815260200182805461050e90611571565b801561055b5780601f106105305761010080835404028352916020019161055b565b820191906000526020600020905b81548152906001019060200180831161053e57829003601f168201915b5050505050815260200160018201548152602001600282015481526020016003820160009054906101000a900473ffffffffffffffffffffffffffffffffffffffff1673ffffffffffffffffffffffffffffffffffffffff1673ffffffffffffffffffffffffffffffffffffffff1681526020016003820160149054906101000a900461ffff1661ffff1661ffff1681526020016004820180548060200260200160405190810160405280929190818152602001828054801561063d57602002820191906000526020600020905b815481526020019060010190808311610629575b5050505050815250509050806060015173ffffffffffffffffffffffffffffffffffffffff163373ffffffffffffffffffffffffffffffffffffffff16146106ba576040517f08c379a00000000000000000000000000000000000000000000000000000000081526004016106b190611614565b60405180910390fd5b60006040518060c00160405280858152602001868152602001848152602001836060015173ffffffffffffffffffffffffffffffffffffffff168152602001836080015161ffff1681526020018360a0015181525090508060046000878152602001908152602001600020600082015181600001908161073a91906117e0565b50602082015181600101556040820151816002015560608201518160030160006101000a81548173ffffffffffffffffffffffffffffffffffffffff021916908373ffffffffffffffffffffffffffffffffffffffff16021790555060808201518160030160146101000a81548161ffff021916908361ffff16021790555060a08201518160040190805190602001906107d5929190610c86565b509050505050505050565b600460205280600052604060002060009150905080600001805461080390611571565b80601f016020809104026020016040519081016040528092919081815260200182805461082f90611571565b801561087c5780601f106108515761010080835404028352916020019161087c565b820191906000526020600020905b81548152906001019060200180831161085f57829003601f168201915b5050505050908060010154908060020154908060030160009054906101000a900473ffffffffffffffffffffffffffffffffffffffff16908060030160149054906101000a900461ffff16905085565b60016020528160005260406000206020528060005260406000206000915091509054906101000a900460ff1681565b610903610b3c565b61090d6000610bba565b565b60008060009054906101000a900473ffffffffffffffffffffffffffffffffffffffff16905090565b60056020528060005260406000206000915090508060000160009054906101000a900473ffffffffffffffffffffffffffffffffffffffff16908060010154905082565b6002600081548092919061098f9061148e565b9190505550606060006040518060c0016040528087815260200160025481526020018681526020013373ffffffffffffffffffffffffffffffffffffffff1681526020018561ffff168152602001848152509050806004600060025481526020019081526020016000206000820151816000019081610a0e91906117e0565b50602082015181600101556040820151816002015560608201518160030160006101000a81548173ffffffffffffffffffffffffffffffffffffffff021916908373ffffffffffffffffffffffffffffffffffffffff16021790555060808201518160030160146101000a81548161ffff021916908361ffff16021790555060a0820151816004019080519060200190610aa9929190610c86565b50905050505050505050565b565b565b610ac1610b3c565b600073ffffffffffffffffffffffffffffffffffffffff168173ffffffffffffffffffffffffffffffffffffffff1603610b30576040517f08c379a0000000000000000000000000000000000000000000000000000000008152600401610b2790611924565b60405180910390fd5b610b3981610bba565b50565b610b44610c7e565b73ffffffffffffffffffffffffffffffffffffffff16610b6261090f565b73ffffffffffffffffffffffffffffffffffffffff1614610bb8576040517f08c379a0000000000000000000000000000000000000000000000000000000008152600401610baf90611990565b60405180910390fd5b565b60008060009054906101000a900473ffffffffffffffffffffffffffffffffffffffff169050816000806101000a81548173ffffffffffffffffffffffffffffffffffffffff021916908373ffffffffffffffffffffffffffffffffffffffff1602179055508173ffffffffffffffffffffffffffffffffffffffff168173ffffffffffffffffffffffffffffffffffffffff167f8be0079c531659141344cd1fd0a4f28419497f9722a3daafe3b4186f6b6457e060405160405180910390a35050565b600033905090565b828054828255906000526020600020908101928215610cc2579160200282015b82811115610cc1578251825591602001919060010190610ca6565b5b509050610ccf9190610cd3565b5090565b5b80821115610cec576000816000905550600101610cd4565b5090565b6000604051905090565b600080fd5b600080fd5b6000819050919050565b610d1781610d04565b8114610d2257600080fd5b50565b600081359050610d3481610d0e565b92915050565b600073ffffffffffffffffffffffffffffffffffffffff82169050919050565b6000610d6582610d3a565b9050919050565b610d7581610d5a565b8114610d8057600080fd5b50565b600081359050610d9281610d6c565b92915050565b6000819050919050565b610dab81610d98565b8114610db657600080fd5b50565b600081359050610dc881610da2565b92915050565b600080600060608486031215610de757610de6610cfa565b5b6000610df586828701610d25565b9350506020610e0686828701610d83565b9250506040610e1786828701610db9565b9150509250925092565b600060208284031215610e3757610e36610cfa565b5b6000610e4584828501610d83565b91505092915050565b60008115159050919050565b610e6381610e4e565b82525050565b6000602082019050610e7e6000830184610e5a565b92915050565b600060208284031215610e9a57610e99610cfa565b5b6000610ea884828501610d25565b91505092915050565b610eba81610d5a565b82525050565b610ec981610d04565b82525050565b6000604082019050610ee46000830185610eb1565b610ef16020830184610ec0565b9392505050565b600080fd5b600080fd5b6000601f19601f8301169050919050565b7f4e487b7100000000000000000000000000000000000000000000000000000000600052604160045260246000fd5b610f4b82610f02565b810181811067ffffffffffffffff82111715610f6a57610f69610f13565b5b80604052505050565b6000610f7d610cf0565b9050610f898282610f42565b919050565b600067ffffffffffffffff821115610fa957610fa8610f13565b5b610fb282610f02565b9050602081019050919050565b82818337600083830152505050565b6000610fe1610fdc84610f8e565b610f73565b905082815260208101848484011115610ffd57610ffc610efd565b5b611008848285610fbf565b509392505050565b600082601f83011261102557611024610ef8565b5b8135611035848260208601610fce565b91505092915050565b60008060006060848603121561105757611056610cfa565b5b600061106586828701610d25565b935050602084013567ffffffffffffffff81111561108657611085610cff565b5b61109286828701611010565b92505060406110a386828701610d25565b9150509250925092565b600081519050919050565b600082825260208201905092915050565b60005b838110156110e75780820151818401526020810190506110cc565b60008484015250505050565b60006110fe826110ad565b61110881856110b8565b93506111188185602086016110c9565b61112181610f02565b840191505092915050565b600061ffff82169050919050565b6111438161112c565b82525050565b600060a082019050818103600083015261116381886110f3565b90506111726020830187610ec0565b61117f6040830186610ec0565b61118c6060830185610eb1565b611199608083018461113a565b9695505050505050565b600080604083850312156111ba576111b9610cfa565b5b60006111c885828601610d25565b92505060206111d985828601610d83565b9150509250929050565b60006020820190506111f86000830184610eb1565b92915050565b6112078161112c565b811461121257600080fd5b50565b600081359050611224816111fe565b92915050565b600067ffffffffffffffff82111561124557611244610f13565b5b602082029050602081019050919050565b600080fd5b600061126e6112698461122a565b610f73565b9050808382526020820190506020840283018581111561129157611290611256565b5b835b818110156112ba57806112a68882610db9565b845260208401935050602081019050611293565b5050509392505050565b600082601f8301126112d9576112d8610ef8565b5b81356112e984826020860161125b565b91505092915050565b6000806000806080858703121561130c5761130b610cfa565b5b600085013567ffffffffffffffff81111561132a57611329610cff565b5b61133687828801611010565b945050602061134787828801610d25565b935050604061135887828801611215565b925050606085013567ffffffffffffffff81111561137957611378610cff565b5b611385878288016112c4565b91505092959194509250565b7f4e487b7100000000000000000000000000000000000000000000000000000000600052603260045260246000fd5b6000819050919050565b6113db6113d682610d98565b6113c0565b82525050565b60006113ed82846113ca565b60208201915081905092915050565b7f4e487b7100000000000000000000000000000000000000000000000000000000600052601160045260246000fd5b600061143682610d04565b915061144183610d04565b9250828203905081811115611459576114586113fc565b5b92915050565b7f4e487b7100000000000000000000000000000000000000000000000000000000600052603160045260246000fd5b600061149982610d04565b91507fffffffffffffffffffffffffffffffffffffffffffffffffffffffffffffffff82036114cb576114ca6113fc565b5b600182019050919050565b7f596f7520646f6e2774206861766520612076616c6964207365637265742e0000600082015250565b600061150c601e836110b8565b9150611517826114d6565b602082019050919050565b6000602082019050818103600083015261153b816114ff565b9050919050565b7f4e487b7100000000000000000000000000000000000000000000000000000000600052602260045260246000fd5b6000600282049050600182168061158957607f821691505b60208210810361159c5761159b611542565b5b50919050565b7f596f7520617265206e6f7420746865206f776e6572206f66207468697320657660008201527f656e740000000000000000000000000000000000000000000000000000000000602082015250565b60006115fe6023836110b8565b9150611609826115a2565b604082019050919050565b6000602082019050818103600083015261162d816115f1565b9050919050565b60008190508160005260206000209050919050565b60006020601f8301049050919050565b600082821b905092915050565b6000600883026116967fffffffffffffffffffffffffffffffffffffffffffffffffffffffffffffffff82611659565b6116a08683611659565b95508019841693508086168417925050509392505050565b6000819050919050565b60006116dd6116d86116d384610d04565b6116b8565b610d04565b9050919050565b6000819050919050565b6116f7836116c2565b61170b611703826116e4565b848454611666565b825550505050565b600090565b611720611713565b61172b8184846116ee565b505050565b5b8181101561174f57611744600082611718565b600181019050611731565b5050565b601f8211156117945761176581611634565b61176e84611649565b8101602085101561177d578190505b61179161178985611649565b830182611730565b50505b505050565b600082821c905092915050565b60006117b760001984600802611799565b1980831691505092915050565b60006117d083836117a6565b9150826002028217905092915050565b6117e9826110ad565b67ffffffffffffffff81111561180257611801610f13565b5b61180c8254611571565b611817828285611753565b600060209050601f83116001811461184a5760008415611838578287015190505b61184285826117c4565b8655506118aa565b601f19841661185886611634565b60005b828110156118805784890151825560018201915060208501945060208101905061185b565b8683101561189d5784890151611899601f8916826117a6565b8355505b6001600288020188555050505b505050505050565b7f4f776e61626c653a206e6577206f776e657220697320746865207a65726f206160008201527f6464726573730000000000000000000000000000000000000000000000000000602082015250565b600061190e6026836110b8565b9150611919826118b2565b604082019050919050565b6000602082019050818103600083015261193d81611901565b9050919050565b7f4f776e61626c653a2063616c6c6572206973206e6f7420746865206f776e6572600082015250565b600061197a6020836110b8565b915061198582611944565b602082019050919050565b600060208201905081810360008301526119a98161196d565b905091905056fea26469706673582212201688cae0fa31c06adcde13fd04e51d364978fab3d730f2b8053bbb816b7faee964736f6c63430008100033",
  "linkReferences": {},
  "deployedLinkReferences": {}
}