{
  "_format": "hh-sol-artifact-1",
  "contractName": "Dispatcher",
  "sourceName": "contracts/Dispatcher.sol",
  "abi": [
    {
      "inputs": [],
      "stateMutability": "nonpayable",
      "type": "constructor"
    },
    {
      "anonymous": false,
      "inputs": [
        {
          "indexed": true,
          "internalType": "address",
          "name": "_owner",
          "type": "address"
        },
        {
          "indexed": false,
          "internalType": "uint256",
          "name": "_id",
          "type": "uint256"
        },
        {
          "indexed": false,
          "internalType": "string",
          "name": "_title",
          "type": "string"
        },
        {
          "indexed": false,
          "internalType": "uint256",
          "name": "_timestampOfEvent",
          "type": "uint256"
        }
      ],
      "name": "EventCreated",
      "type": "event"
    },
    {
      "anonymous": false,
      "inputs": [
        {
          "indexed": true,
          "internalType": "address",
          "name": "previousOwner",
          "type": "address"
        },
        {
          "indexed": true,
          "internalType": "address",
          "name": "newOwner",
          "type": "address"
        }
      ],
      "name": "OwnershipTransferred",
      "type": "event"
    },
    {
      "inputs": [
        {
          "internalType": "address",
          "name": "",
          "type": "address"
        }
      ],
      "name": "addressIsMember",
      "outputs": [
        {
          "internalType": "bool",
          "name": "",
          "type": "bool"
        }
      ],
      "stateMutability": "view",
      "type": "function"
    },
    {
      "inputs": [
        {
          "internalType": "address",
          "name": "",
          "type": "address"
        }
      ],
      "name": "addressToMember",
      "outputs": [
        {
          "internalType": "address",
          "name": "member",
          "type": "address"
        },
        {
          "internalType": "uint256",
          "name": "tokenId",
          "type": "uint256"
        }
      ],
      "stateMutability": "view",
      "type": "function"
    },
    {
      "inputs": [
        {
          "internalType": "string",
          "name": "_title",
          "type": "string"
        },
        {
          "internalType": "uint256",
          "name": "_timestampOfEvent",
          "type": "uint256"
        },
        {
          "internalType": "uint16",
          "name": "_maxAttendees",
          "type": "uint16"
        },
        {
          "internalType": "bytes32[]",
          "name": "_hashes",
          "type": "bytes32[]"
        }
      ],
      "name": "createEvent",
      "outputs": [],
      "stateMutability": "nonpayable",
      "type": "function"
    },
    {
      "inputs": [],
      "name": "createMember",
      "outputs": [],
      "stateMutability": "nonpayable",
      "type": "function"
    },
    {
      "inputs": [
        {
          "internalType": "uint256",
          "name": "",
          "type": "uint256"
        },
        {
          "internalType": "address",
          "name": "",
          "type": "address"
        }
      ],
      "name": "eventIdToMemberToIfPresent",
      "outputs": [
        {
          "internalType": "bool",
          "name": "",
          "type": "bool"
        }
      ],
      "stateMutability": "view",
      "type": "function"
    },
    {
      "inputs": [
        {
          "internalType": "uint256",
          "name": "",
          "type": "uint256"
        }
      ],
      "name": "eventToAttendees",
      "outputs": [
        {
          "internalType": "address",
          "name": "member",
          "type": "address"
        },
        {
          "internalType": "uint256",
          "name": "tokenId",
          "type": "uint256"
        }
      ],
      "stateMutability": "view",
      "type": "function"
    },
    {
      "inputs": [
        {
          "internalType": "uint256",
          "name": "_eventID",
          "type": "uint256"
        },
        {
          "internalType": "address",
          "name": "_attendee",
          "type": "address"
        },
        {
          "internalType": "bytes32",
          "name": "_secret",
          "type": "bytes32"
        }
      ],
      "name": "iWasHere",
      "outputs": [],
      "stateMutability": "nonpayable",
      "type": "function"
    },
    {
      "inputs": [
        {
          "internalType": "uint256",
          "name": "",
          "type": "uint256"
        }
      ],
      "name": "idToEvents",
      "outputs": [
        {
          "internalType": "string",
          "name": "title",
          "type": "string"
        },
        {
          "internalType": "uint256",
          "name": "id",
          "type": "uint256"
        },
        {
          "internalType": "uint256",
          "name": "timestampOfEvent",
          "type": "uint256"
        },
        {
          "internalType": "address",
          "name": "owner",
          "type": "address"
        },
        {
          "internalType": "uint16",
          "name": "maxAttendees",
          "type": "uint16"
        }
      ],
      "stateMutability": "view",
      "type": "function"
    },
    {
      "inputs": [],
      "name": "owner",
      "outputs": [
        {
          "internalType": "address",
          "name": "",
          "type": "address"
        }
      ],
      "stateMutability": "view",
      "type": "function"
    },
    {
      "inputs": [],
      "name": "renounceOwnership",
      "outputs": [],
      "stateMutability": "nonpayable",
      "type": "function"
    },
    {
      "inputs": [
        {
          "internalType": "address",
          "name": "newOwner",
          "type": "address"
        }
      ],
      "name": "transferOwnership",
      "outputs": [],
      "stateMutability": "nonpayable",
      "type": "function"
    },
    {
      "inputs": [
        {
          "internalType": "uint256",
          "name": "_EventId",
          "type": "uint256"
        },
        {
          "internalType": "string",
          "name": "_newTitle",
          "type": "string"
        },
        {
          "internalType": "uint256",
          "name": "_timestampOFEvent",
          "type": "uint256"
        }
      ],
      "name": "updateEvent",
      "outputs": [],
      "stateMutability": "nonpayable",
      "type": "function"
    },
    {
      "inputs": [],
      "name": "updateMembercardFields",
      "outputs": [],
      "stateMutability": "nonpayable",
      "type": "function"
    }
  ],
  "bytecode": "0x608060405234801561001057600080fd5b5061002d61002261003260201b60201c565b61003a60201b60201c565b6100fe565b600033905090565b60008060009054906101000a900473ffffffffffffffffffffffffffffffffffffffff169050816000806101000a81548173ffffffffffffffffffffffffffffffffffffffff021916908373ffffffffffffffffffffffffffffffffffffffff1602179055508173ffffffffffffffffffffffffffffffffffffffff168173ffffffffffffffffffffffffffffffffffffffff167f8be0079c531659141344cd1fd0a4f28419497f9722a3daafe3b4186f6b6457e060405160405180910390a35050565b611a828061010d6000396000f3fe608060405234801561001057600080fd5b50600436106100cf5760003560e01c8063715018a61161008c578063b8b7283c11610066578063b8b7283c1461022a578063d4f6ef9814610246578063d815e58d14610250578063f2fde38b1461025a576100cf565b8063715018a6146101d15780638da5cb5b146101db578063a4b08872146101f9576100cf565b8063256892b5146100d457806328da575b146100f05780634ed894091461012057806352dd7571146101515780636ac19ff01461016d5780637011a556146101a1575b600080fd5b6100ee60048036038101906100e99190610e2c565b610276565b005b61010a60048036038101906101059190610e7f565b61044e565b6040516101179190610ec7565b60405180910390f35b61013a60048036038101906101359190610ee2565b61046e565b604051610148929190610f2d565b60405180910390f35b61016b6004803603810190610166919061109c565b6104b2565b005b61018760048036038101906101829190610ee2565b6107e0565b6040516101989594939291906111a7565b60405180910390f35b6101bb60048036038101906101b69190611201565b6108cc565b6040516101c89190610ec7565b60405180910390f35b6101d96108fb565b005b6101e361090f565b6040516101f09190611241565b60405180910390f35b610213600480360381019061020e9190610e7f565b610938565b604051610221929190610f2d565b60405180910390f35b610244600480360381019061023f9190611350565b61097c565b005b61024e610b13565b005b610258610b15565b005b610274600480360381019061026f9190610e7f565b610b17565b005b60008060046000868152602001908152602001600020905060005b8160030160149054906101000a900461ffff1661ffff168110156103b45760008260040182815481106102c7576102c66113ef565b5b90600052602060002001549050846040516020016102e5919061143f565b6040516020818303038152906040528051906020012081036103a0578260040180549050821061031457600080fd5b826004016001846004018054905061032c9190611489565b8154811061033d5761033c6113ef565b5b906000526020600020015483600401838154811061035e5761035d6113ef565b5b9060005260206000200181905550826004018054806103805761037f6114bd565b5b6001900381819060005260206000200160009055905560019350506103b4565b5080806103ac906114ec565b915050610291565b50816103f5576040517f08c379a00000000000000000000000000000000000000000000000000000000081526004016103ec90611580565b60405180910390fd5b6000600660008673ffffffffffffffffffffffffffffffffffffffff1673ffffffffffffffffffffffffffffffffffffffff16815260200190815260200160002060009054906101000a900460ff169050505050505050565b60066020528060005260406000206000915054906101000a900460ff1681565b60076020528060005260406000206000915090508060000160009054906101000a900473ffffffffffffffffffffffffffffffffffffffff16908060010154905082565b6000600460008581526020019081526020016000206040518060c00160405290816000820180546104e2906115cf565b80601f016020809104026020016040519081016040528092919081815260200182805461050e906115cf565b801561055b5780601f106105305761010080835404028352916020019161055b565b820191906000526020600020905b81548152906001019060200180831161053e57829003601f168201915b5050505050815260200160018201548152602001600282015481526020016003820160009054906101000a900473ffffffffffffffffffffffffffffffffffffffff1673ffffffffffffffffffffffffffffffffffffffff1673ffffffffffffffffffffffffffffffffffffffff1681526020016003820160149054906101000a900461ffff1661ffff1661ffff1681526020016004820180548060200260200160405190810160405280929190818152602001828054801561063d57602002820191906000526020600020905b815481526020019060010190808311610629575b5050505050815250509050806060015173ffffffffffffffffffffffffffffffffffffffff163373ffffffffffffffffffffffffffffffffffffffff16146106ba576040517f08c379a00000000000000000000000000000000000000000000000000000000081526004016106b190611672565b60405180910390fd5b60006040518060c00160405280858152602001868152602001848152602001836060015173ffffffffffffffffffffffffffffffffffffffff168152602001836080015161ffff1681526020018360a0015181525090508060046000878152602001908152602001600020600082015181600001908161073a919061183e565b50602082015181600101556040820151816002015560608201518160030160006101000a81548173ffffffffffffffffffffffffffffffffffffffff021916908373ffffffffffffffffffffffffffffffffffffffff16021790555060808201518160030160146101000a81548161ffff021916908361ffff16021790555060a08201518160040190805190602001906107d5929190610ce4565b509050505050505050565b6004602052806000526040600020600091509050806000018054610803906115cf565b80601f016020809104026020016040519081016040528092919081815260200182805461082f906115cf565b801561087c5780601f106108515761010080835404028352916020019161087c565b820191906000526020600020905b81548152906001019060200180831161085f57829003601f168201915b5050505050908060010154908060020154908060030160009054906101000a900473ffffffffffffffffffffffffffffffffffffffff16908060030160149054906101000a900461ffff16905085565b60016020528160005260406000206020528060005260406000206000915091509054906101000a900460ff1681565b610903610b9a565b61090d6000610c18565b565b60008060009054906101000a900473ffffffffffffffffffffffffffffffffffffffff16905090565b60056020528060005260406000206000915090508060000160009054906101000a900473ffffffffffffffffffffffffffffffffffffffff16908060010154905082565b6002600081548092919061098f906114ec565b9190505550606060006040518060c0016040528087815260200160025481526020018681526020013373ffffffffffffffffffffffffffffffffffffffff1681526020018561ffff168152602001848152509050806004600060025481526020019081526020016000206000820151816000019081610a0e919061183e565b50602082015181600101556040820151816002015560608201518160030160006101000a81548173ffffffffffffffffffffffffffffffffffffffff021916908373ffffffffffffffffffffffffffffffffffffffff16021790555060808201518160030160146101000a81548161ffff021916908361ffff16021790555060a0820151816004019080519060200190610aa9929190610ce4565b509050503373ffffffffffffffffffffffffffffffffffffffff167ff9c15d6b18cb103075b9c4c638060dd1b63ff37f2bfe9cd5e729a1ffaf32f8c6826020015183600001518460400151604051610b0393929190611910565b60405180910390a2505050505050565b565b565b610b1f610b9a565b600073ffffffffffffffffffffffffffffffffffffffff168173ffffffffffffffffffffffffffffffffffffffff1603610b8e576040517f08c379a0000000000000000000000000000000000000000000000000000000008152600401610b85906119c0565b60405180910390fd5b610b9781610c18565b50565b610ba2610cdc565b73ffffffffffffffffffffffffffffffffffffffff16610bc061090f565b73ffffffffffffffffffffffffffffffffffffffff1614610c16576040517f08c379a0000000000000000000000000000000000000000000000000000000008152600401610c0d90611a2c565b60405180910390fd5b565b60008060009054906101000a900473ffffffffffffffffffffffffffffffffffffffff169050816000806101000a81548173ffffffffffffffffffffffffffffffffffffffff021916908373ffffffffffffffffffffffffffffffffffffffff1602179055508173ffffffffffffffffffffffffffffffffffffffff168173ffffffffffffffffffffffffffffffffffffffff167f8be0079c531659141344cd1fd0a4f28419497f9722a3daafe3b4186f6b6457e060405160405180910390a35050565b600033905090565b828054828255906000526020600020908101928215610d20579160200282015b82811115610d1f578251825591602001919060010190610d04565b5b509050610d2d9190610d31565b5090565b5b80821115610d4a576000816000905550600101610d32565b5090565b6000604051905090565b600080fd5b600080fd5b6000819050919050565b610d7581610d62565b8114610d8057600080fd5b50565b600081359050610d9281610d6c565b92915050565b600073ffffffffffffffffffffffffffffffffffffffff82169050919050565b6000610dc382610d98565b9050919050565b610dd381610db8565b8114610dde57600080fd5b50565b600081359050610df081610dca565b92915050565b6000819050919050565b610e0981610df6565b8114610e1457600080fd5b50565b600081359050610e2681610e00565b92915050565b600080600060608486031215610e4557610e44610d58565b5b6000610e5386828701610d83565b9350506020610e6486828701610de1565b9250506040610e7586828701610e17565b9150509250925092565b600060208284031215610e9557610e94610d58565b5b6000610ea384828501610de1565b91505092915050565b60008115159050919050565b610ec181610eac565b82525050565b6000602082019050610edc6000830184610eb8565b92915050565b600060208284031215610ef857610ef7610d58565b5b6000610f0684828501610d83565b91505092915050565b610f1881610db8565b82525050565b610f2781610d62565b82525050565b6000604082019050610f426000830185610f0f565b610f4f6020830184610f1e565b9392505050565b600080fd5b600080fd5b6000601f19601f8301169050919050565b7f4e487b7100000000000000000000000000000000000000000000000000000000600052604160045260246000fd5b610fa982610f60565b810181811067ffffffffffffffff82111715610fc857610fc7610f71565b5b80604052505050565b6000610fdb610d4e565b9050610fe78282610fa0565b919050565b600067ffffffffffffffff82111561100757611006610f71565b5b61101082610f60565b9050602081019050919050565b82818337600083830152505050565b600061103f61103a84610fec565b610fd1565b90508281526020810184848401111561105b5761105a610f5b565b5b61106684828561101d565b509392505050565b600082601f83011261108357611082610f56565b5b813561109384826020860161102c565b91505092915050565b6000806000606084860312156110b5576110b4610d58565b5b60006110c386828701610d83565b935050602084013567ffffffffffffffff8111156110e4576110e3610d5d565b5b6110f08682870161106e565b925050604061110186828701610d83565b9150509250925092565b600081519050919050565b600082825260208201905092915050565b60005b8381101561114557808201518184015260208101905061112a565b60008484015250505050565b600061115c8261110b565b6111668185611116565b9350611176818560208601611127565b61117f81610f60565b840191505092915050565b600061ffff82169050919050565b6111a18161118a565b82525050565b600060a08201905081810360008301526111c18188611151565b90506111d06020830187610f1e565b6111dd6040830186610f1e565b6111ea6060830185610f0f565b6111f76080830184611198565b9695505050505050565b6000806040838503121561121857611217610d58565b5b600061122685828601610d83565b925050602061123785828601610de1565b9150509250929050565b60006020820190506112566000830184610f0f565b92915050565b6112658161118a565b811461127057600080fd5b50565b6000813590506112828161125c565b92915050565b600067ffffffffffffffff8211156112a3576112a2610f71565b5b602082029050602081019050919050565b600080fd5b60006112cc6112c784611288565b610fd1565b905080838252602082019050602084028301858111156112ef576112ee6112b4565b5b835b8181101561131857806113048882610e17565b8452602084019350506020810190506112f1565b5050509392505050565b600082601f83011261133757611336610f56565b5b81356113478482602086016112b9565b91505092915050565b6000806000806080858703121561136a57611369610d58565b5b600085013567ffffffffffffffff81111561138857611387610d5d565b5b6113948782880161106e565b94505060206113a587828801610d83565b93505060406113b687828801611273565b925050606085013567ffffffffffffffff8111156113d7576113d6610d5d565b5b6113e387828801611322565b91505092959194509250565b7f4e487b7100000000000000000000000000000000000000000000000000000000600052603260045260246000fd5b6000819050919050565b61143961143482610df6565b61141e565b82525050565b600061144b8284611428565b60208201915081905092915050565b7f4e487b7100000000000000000000000000000000000000000000000000000000600052601160045260246000fd5b600061149482610d62565b915061149f83610d62565b92508282039050818111156114b7576114b661145a565b5b92915050565b7f4e487b7100000000000000000000000000000000000000000000000000000000600052603160045260246000fd5b60006114f782610d62565b91507fffffffffffffffffffffffffffffffffffffffffffffffffffffffffffffffff82036115295761152861145a565b5b600182019050919050565b7f596f7520646f6e2774206861766520612076616c6964207365637265742e0000600082015250565b600061156a601e83611116565b915061157582611534565b602082019050919050565b600060208201905081810360008301526115998161155d565b9050919050565b7f4e487b7100000000000000000000000000000000000000000000000000000000600052602260045260246000fd5b600060028204905060018216806115e757607f821691505b6020821081036115fa576115f96115a0565b5b50919050565b7f596f7520617265206e6f7420746865206f776e6572206f66207468697320657660008201527f656e740000000000000000000000000000000000000000000000000000000000602082015250565b600061165c602383611116565b915061166782611600565b604082019050919050565b6000602082019050818103600083015261168b8161164f565b9050919050565b60008190508160005260206000209050919050565b60006020601f8301049050919050565b600082821b905092915050565b6000600883026116f47fffffffffffffffffffffffffffffffffffffffffffffffffffffffffffffffff826116b7565b6116fe86836116b7565b95508019841693508086168417925050509392505050565b6000819050919050565b600061173b61173661173184610d62565b611716565b610d62565b9050919050565b6000819050919050565b61175583611720565b61176961176182611742565b8484546116c4565b825550505050565b600090565b61177e611771565b61178981848461174c565b505050565b5b818110156117ad576117a2600082611776565b60018101905061178f565b5050565b601f8211156117f2576117c381611692565b6117cc846116a7565b810160208510156117db578190505b6117ef6117e7856116a7565b83018261178e565b50505b505050565b600082821c905092915050565b6000611815600019846008026117f7565b1980831691505092915050565b600061182e8383611804565b9150826002028217905092915050565b6118478261110b565b67ffffffffffffffff8111156118605761185f610f71565b5b61186a82546115cf565b6118758282856117b1565b600060209050601f8311600181146118a85760008415611896578287015190505b6118a08582611822565b865550611908565b601f1984166118b686611692565b60005b828110156118de578489015182556001820191506020850194506020810190506118b9565b868310156118fb57848901516118f7601f891682611804565b8355505b6001600288020188555050505b505050505050565b60006060820190506119256000830186610f1e565b81810360208301526119378185611151565b90506119466040830184610f1e565b949350505050565b7f4f776e61626c653a206e6577206f776e657220697320746865207a65726f206160008201527f6464726573730000000000000000000000000000000000000000000000000000602082015250565b60006119aa602683611116565b91506119b58261194e565b604082019050919050565b600060208201905081810360008301526119d98161199d565b9050919050565b7f4f776e61626c653a2063616c6c6572206973206e6f7420746865206f776e6572600082015250565b6000611a16602083611116565b9150611a21826119e0565b602082019050919050565b60006020820190508181036000830152611a4581611a09565b905091905056fea2646970667358221220286997d3f5ce0f28bfccbf8835150ef63bfc14f5dea09f10594d96d15c71e91164736f6c63430008100033",
  "linkReferences": {},
  "deployedLinkReferences": {}
}